{
	"data": {
		"bytecode": {
			"linkReferences": {},
			"object": "608060405234801561000f575f80fd5b50336040518060400160405280600981526020017f536b696c6c734e465400000000000000000000000000000000000000000000008152506040518060400160405280600481526020017f534e465400000000000000000000000000000000000000000000000000000000815250815f908161008b9190610427565b50806001908161009b9190610427565b5050505f73ffffffffffffffffffffffffffffffffffffffff168173ffffffffffffffffffffffffffffffffffffffff160361010e575f6040517f1e4fbdf70000000000000000000000000000000000000000000000000000000081526004016101059190610535565b60405180910390fd5b61011d8161012a60201b60201c565b505f60088190555061054e565b5f60075f9054906101000a900473ffffffffffffffffffffffffffffffffffffffff1690508160075f6101000a81548173ffffffffffffffffffffffffffffffffffffffff021916908373ffffffffffffffffffffffffffffffffffffffff1602179055508173ffffffffffffffffffffffffffffffffffffffff168173ffffffffffffffffffffffffffffffffffffffff167f8be0079c531659141344cd1fd0a4f28419497f9722a3daafe3b4186f6b6457e060405160405180910390a35050565b5f81519050919050565b7f4e487b71000000000000000000000000000000000000000000000000000000005f52604160045260245ffd5b7f4e487b71000000000000000000000000000000000000000000000000000000005f52602260045260245ffd5b5f600282049050600182168061026857607f821691505b60208210810361027b5761027a610224565b5b50919050565b5f819050815f5260205f209050919050565b5f6020601f8301049050919050565b5f82821b905092915050565b5f600883026102dd7fffffffffffffffffffffffffffffffffffffffffffffffffffffffffffffffff826102a2565b6102e786836102a2565b95508019841693508086168417925050509392505050565b5f819050919050565b5f819050919050565b5f61032b610326610321846102ff565b610308565b6102ff565b9050919050565b5f819050919050565b61034483610311565b61035861035082610332565b8484546102ae565b825550505050565b5f90565b61036c610360565b61037781848461033b565b505050565b5b8181101561039a5761038f5f82610364565b60018101905061037d565b5050565b601f8211156103df576103b081610281565b6103b984610293565b810160208510156103c8578190505b6103dc6103d485610293565b83018261037c565b50505b505050565b5f82821c905092915050565b5f6103ff5f19846008026103e4565b1980831691505092915050565b5f61041783836103f0565b9150826002028217905092915050565b610430826101ed565b67ffffffffffffffff811115610449576104486101f7565b5b6104538254610251565b61045e82828561039e565b5f60209050601f83116001811461048f575f841561047d578287015190505b610487858261040c565b8655506104ee565b601f19841661049d86610281565b5f5b828110156104c45784890151825560018201915060208501945060208101905061049f565b868310156104e157848901516104dd601f8916826103f0565b8355505b6001600288020188555050505b505050505050565b5f73ffffffffffffffffffffffffffffffffffffffff82169050919050565b5f61051f826104f6565b9050919050565b61052f81610515565b82525050565b5f6020820190506105485f830184610526565b92915050565b612ad38061055b5f395ff3fe608060405234801561000f575f80fd5b5060043610610114575f3560e01c80638da5cb5b116100a0578063c87b56dd1161006f578063c87b56dd146102c8578063d082e381146102f8578063e985e9c514610316578063eacabe1414610346578063f2fde38b1461037657610114565b80638da5cb5b1461025457806395d89b4114610272578063a22cb46514610290578063b88d4fde146102ac57610114565b806323b872dd116100e757806323b872dd146101b257806342842e0e146101ce5780636352211e146101ea57806370a082311461021a578063715018a61461024a57610114565b806301ffc9a71461011857806306fdde0314610148578063081812fc14610166578063095ea7b314610196575b5f80fd5b610132600480360381019061012d9190611ca1565b610392565b60405161013f9190611ce6565b60405180910390f35b6101506103f2565b60405161015d9190611d6f565b60405180910390f35b610180600480360381019061017b9190611dc2565b610481565b60405161018d9190611e2c565b60405180910390f35b6101b060048036038101906101ab9190611e6f565b61049c565b005b6101cc60048036038101906101c79190611ead565b6104b2565b005b6101e860048036038101906101e39190611ead565b6105b1565b005b61020460048036038101906101ff9190611dc2565b6105d0565b6040516102119190611e2c565b60405180910390f35b610234600480360381019061022f9190611efd565b6105e1565b6040516102419190611f37565b60405180910390f35b610252610697565b005b61025c6106aa565b6040516102699190611e2c565b60405180910390f35b61027a6106d2565b6040516102879190611d6f565b60405180910390f35b6102aa60048036038101906102a59190611f7a565b610762565b005b6102c660048036038101906102c191906120e4565b610778565b005b6102e260048036038101906102dd9190611dc2565b61079d565b6040516102ef9190611d6f565b60405180910390f35b6103006108a8565b60405161030d9190611f37565b60405180910390f35b610330600480360381019061032b9190612164565b6108ae565b60405161033d9190611ce6565b60405180910390f35b610360600480360381019061035b9190612240565b61093c565b60405161036d9190611f37565b60405180910390f35b610390600480360381019061038b9190611efd565b6109d0565b005b5f634906490660e01b7bffffffffffffffffffffffffffffffffffffffffffffffffffffffff1916827bffffffffffffffffffffffffffffffffffffffffffffffffffffffff191614806103eb57506103ea82610a54565b5b9050919050565b60605f8054610400906122c7565b80601f016020809104026020016040519081016040528092919081815260200182805461042c906122c7565b80156104775780601f1061044e57610100808354040283529160200191610477565b820191905f5260205f20905b81548152906001019060200180831161045a57829003601f168201915b5050505050905090565b5f61048b82610b35565b5061049582610bbb565b9050919050565b6104ae82826104a9610bf4565b610bfb565b5050565b5f73ffffffffffffffffffffffffffffffffffffffff168273ffffffffffffffffffffffffffffffffffffffff1603610522575f6040517f64a0ae920000000000000000000000000000000000000000000000000000000081526004016105199190611e2c565b60405180910390fd5b5f6105358383610530610bf4565b610c0d565b90508373ffffffffffffffffffffffffffffffffffffffff168173ffffffffffffffffffffffffffffffffffffffff16146105ab578382826040517f64283d7b0000000000000000000000000000000000000000000000000000000081526004016105a2939291906122f7565b60405180910390fd5b50505050565b6105cb83838360405180602001604052805f815250610778565b505050565b5f6105da82610b35565b9050919050565b5f8073ffffffffffffffffffffffffffffffffffffffff168273ffffffffffffffffffffffffffffffffffffffff1603610652575f6040517f89c62b640000000000000000000000000000000000000000000000000000000081526004016106499190611e2c565b60405180910390fd5b60035f8373ffffffffffffffffffffffffffffffffffffffff1673ffffffffffffffffffffffffffffffffffffffff1681526020019081526020015f20549050919050565b61069f610e18565b6106a85f610e9f565b565b5f60075f9054906101000a900473ffffffffffffffffffffffffffffffffffffffff16905090565b6060600180546106e1906122c7565b80601f016020809104026020016040519081016040528092919081815260200182805461070d906122c7565b80156107585780601f1061072f57610100808354040283529160200191610758565b820191905f5260205f20905b81548152906001019060200180831161073b57829003601f168201915b5050505050905090565b61077461076d610bf4565b8383610f62565b5050565b6107838484846104b2565b61079761078e610bf4565b858585856110cb565b50505050565b60606107a882610b35565b505f60065f8481526020019081526020015f2080546107c6906122c7565b80601f01602080910402602001604051908101604052809291908181526020018280546107f2906122c7565b801561083d5780601f106108145761010080835404028352916020019161083d565b820191905f5260205f20905b81548152906001019060200180831161082057829003601f168201915b505050505090505f61084d611277565b90505f8151036108615781925050506108a3565b5f8251111561089557808260405160200161087d929190612366565b604051602081830303815290604052925050506108a3565b61089e8461128d565b925050505b919050565b60085481565b5f60055f8473ffffffffffffffffffffffffffffffffffffffff1673ffffffffffffffffffffffffffffffffffffffff1681526020019081526020015f205f8373ffffffffffffffffffffffffffffffffffffffff1673ffffffffffffffffffffffffffffffffffffffff1681526020019081526020015f205f9054906101000a900460ff16905092915050565b5f610945610e18565b5f600854905061095584826112f3565b5f61097e8460405160200161096a91906124fd565b604051602081830303815290604052611310565b90505f816040516020016109929190612589565b60405160208183030381529060405290506109ad838261133d565b60085f8154809291906109bf906125d7565b919050555082935050505092915050565b6109d8610e18565b5f73ffffffffffffffffffffffffffffffffffffffff168173ffffffffffffffffffffffffffffffffffffffff1603610a48575f6040517f1e4fbdf7000000000000000000000000000000000000000000000000000000008152600401610a3f9190611e2c565b60405180910390fd5b610a5181610e9f565b50565b5f7f80ac58cd000000000000000000000000000000000000000000000000000000007bffffffffffffffffffffffffffffffffffffffffffffffffffffffff1916827bffffffffffffffffffffffffffffffffffffffffffffffffffffffff19161480610b1e57507f5b5e139f000000000000000000000000000000000000000000000000000000007bffffffffffffffffffffffffffffffffffffffffffffffffffffffff1916827bffffffffffffffffffffffffffffffffffffffffffffffffffffffff1916145b80610b2e5750610b2d82611397565b5b9050919050565b5f80610b4083611400565b90505f73ffffffffffffffffffffffffffffffffffffffff168173ffffffffffffffffffffffffffffffffffffffff1603610bb257826040517f7e273289000000000000000000000000000000000000000000000000000000008152600401610ba99190611f37565b60405180910390fd5b80915050919050565b5f60045f8381526020019081526020015f205f9054906101000a900473ffffffffffffffffffffffffffffffffffffffff169050919050565b5f33905090565b610c088383836001611439565b505050565b5f80610c1884611400565b90505f73ffffffffffffffffffffffffffffffffffffffff168373ffffffffffffffffffffffffffffffffffffffff1614610c5957610c588184866115f8565b5b5f73ffffffffffffffffffffffffffffffffffffffff168173ffffffffffffffffffffffffffffffffffffffff1614610ce457610c985f855f80611439565b600160035f8373ffffffffffffffffffffffffffffffffffffffff1673ffffffffffffffffffffffffffffffffffffffff1681526020019081526020015f205f82825403925050819055505b5f73ffffffffffffffffffffffffffffffffffffffff168573ffffffffffffffffffffffffffffffffffffffff1614610d6357600160035f8773ffffffffffffffffffffffffffffffffffffffff1673ffffffffffffffffffffffffffffffffffffffff1681526020019081526020015f205f82825401925050819055505b8460025f8681526020019081526020015f205f6101000a81548173ffffffffffffffffffffffffffffffffffffffff021916908373ffffffffffffffffffffffffffffffffffffffff160217905550838573ffffffffffffffffffffffffffffffffffffffff168273ffffffffffffffffffffffffffffffffffffffff167fddf252ad1be2c89b69c2b068fc378daa952ba7f163c4a11628f55a4df523b3ef60405160405180910390a4809150509392505050565b610e20610bf4565b73ffffffffffffffffffffffffffffffffffffffff16610e3e6106aa565b73ffffffffffffffffffffffffffffffffffffffff1614610e9d57610e61610bf4565b6040517f118cdaa7000000000000000000000000000000000000000000000000000000008152600401610e949190611e2c565b60405180910390fd5b565b5f60075f9054906101000a900473ffffffffffffffffffffffffffffffffffffffff1690508160075f6101000a81548173ffffffffffffffffffffffffffffffffffffffff021916908373ffffffffffffffffffffffffffffffffffffffff1602179055508173ffffffffffffffffffffffffffffffffffffffff168173ffffffffffffffffffffffffffffffffffffffff167f8be0079c531659141344cd1fd0a4f28419497f9722a3daafe3b4186f6b6457e060405160405180910390a35050565b5f73ffffffffffffffffffffffffffffffffffffffff168273ffffffffffffffffffffffffffffffffffffffff1603610fd257816040517f5b08ba18000000000000000000000000000000000000000000000000000000008152600401610fc99190611e2c565b60405180910390fd5b8060055f8573ffffffffffffffffffffffffffffffffffffffff1673ffffffffffffffffffffffffffffffffffffffff1681526020019081526020015f205f8473ffffffffffffffffffffffffffffffffffffffff1673ffffffffffffffffffffffffffffffffffffffff1681526020019081526020015f205f6101000a81548160ff0219169083151502179055508173ffffffffffffffffffffffffffffffffffffffff168373ffffffffffffffffffffffffffffffffffffffff167f17307eab39ab6107e8899845ad3d59bd9653f200f220920489ca2b5937696c31836040516110be9190611ce6565b60405180910390a3505050565b5f8373ffffffffffffffffffffffffffffffffffffffff163b1115611270578273ffffffffffffffffffffffffffffffffffffffff1663150b7a02868685856040518563ffffffff1660e01b81526004016111299493929190612670565b6020604051808303815f875af192505050801561116457506040513d601f19601f8201168201806040525081019061116191906126ce565b60015b6111e5573d805f8114611192576040519150601f19603f3d011682016040523d82523d5f602084013e611197565b606091505b505f8151036111dd57836040517f64a0ae920000000000000000000000000000000000000000000000000000000081526004016111d49190611e2c565b60405180910390fd5b805181602001fd5b63150b7a0260e01b7bffffffffffffffffffffffffffffffffffffffffffffffffffffffff1916817bffffffffffffffffffffffffffffffffffffffffffffffffffffffff19161461126e57836040517f64a0ae920000000000000000000000000000000000000000000000000000000081526004016112659190611e2c565b60405180910390fd5b505b5050505050565b606060405180602001604052805f815250905090565b606061129882610b35565b505f6112a2611277565b90505f8151116112c05760405180602001604052805f8152506112eb565b806112ca846116bb565b6040516020016112db929190612366565b6040516020818303038152906040525b915050919050565b61130c828260405180602001604052805f815250611785565b5050565b606061133682604051806060016040528060408152602001612a5e6040913960016117a8565b9050919050565b8060065f8481526020019081526020015f20908161135b9190612896565b507ff8e1a15aba9398e019f0b49df1a4fde98ee17ae345cb5f6b5e2c27f5033e8ce78260405161138b9190611f37565b60405180910390a15050565b5f7f01ffc9a7000000000000000000000000000000000000000000000000000000007bffffffffffffffffffffffffffffffffffffffffffffffffffffffff1916827bffffffffffffffffffffffffffffffffffffffffffffffffffffffff1916149050919050565b5f60025f8381526020019081526020015f205f9054906101000a900473ffffffffffffffffffffffffffffffffffffffff169050919050565b808061147157505f73ffffffffffffffffffffffffffffffffffffffff168273ffffffffffffffffffffffffffffffffffffffff1614155b156115a3575f61148084610b35565b90505f73ffffffffffffffffffffffffffffffffffffffff168373ffffffffffffffffffffffffffffffffffffffff16141580156114ea57508273ffffffffffffffffffffffffffffffffffffffff168173ffffffffffffffffffffffffffffffffffffffff1614155b80156114fd57506114fb81846108ae565b155b1561153f57826040517fa9fbf51f0000000000000000000000000000000000000000000000000000000081526004016115369190611e2c565b60405180910390fd5b81156115a157838573ffffffffffffffffffffffffffffffffffffffff168273ffffffffffffffffffffffffffffffffffffffff167f8c5be1e5ebec7d5bd14f71427d1e84f3dd0314c0f7b2291e5b200ac8c7c3b92560405160405180910390a45b505b8360045f8581526020019081526020015f205f6101000a81548173ffffffffffffffffffffffffffffffffffffffff021916908373ffffffffffffffffffffffffffffffffffffffff16021790555050505050565b611603838383611937565b6116b6575f73ffffffffffffffffffffffffffffffffffffffff168373ffffffffffffffffffffffffffffffffffffffff160361167757806040517f7e27328900000000000000000000000000000000000000000000000000000000815260040161166e9190611f37565b60405180910390fd5b81816040517f177e802f0000000000000000000000000000000000000000000000000000000081526004016116ad929190612965565b60405180910390fd5b505050565b60605f60016116c9846119f7565b0190505f8167ffffffffffffffff8111156116e7576116e6611fc0565b5b6040519080825280601f01601f1916602001820160405280156117195781602001600182028036833780820191505090505b5090505f82602001820190505b60011561177a578080600190039150507f3031323334353637383961626364656600000000000000000000000000000000600a86061a8153600a858161176f5761176e61298c565b5b0494505f8503611726575b819350505050919050565b61178f8383611b48565b6117a361179a610bf4565b5f8585856110cb565b505050565b60605f8451036117c85760405180602001604052805f8152509050611930565b5f826117f95760036002865160046117e091906129b9565b6117ea91906129fa565b6117f49190612a2d565b611820565b60036002865161180991906129fa565b6118139190612a2d565b600461181f91906129b9565b5b90505f8167ffffffffffffffff81111561183d5761183c611fc0565b5b6040519080825280601f01601f19166020018201604052801561186f5781602001600182028036833780820191505090505b509050600185016020820187885189016020810180515f82525b828410156118e4576003840193508351603f8160121c168701518653600186019550603f81600c1c168701518653600186019550603f8160061c168701518653600186019550603f8116870151865360018601955050611889565b80825289156119245760038c510660018114611907576002811461191a57611922565b603d6001870353603d6002870353611922565b603d60018703535b505b50505050505080925050505b9392505050565b5f8073ffffffffffffffffffffffffffffffffffffffff168373ffffffffffffffffffffffffffffffffffffffff16141580156119ee57508273ffffffffffffffffffffffffffffffffffffffff168473ffffffffffffffffffffffffffffffffffffffff1614806119af57506119ae84846108ae565b5b806119ed57508273ffffffffffffffffffffffffffffffffffffffff166119d583610bbb565b73ffffffffffffffffffffffffffffffffffffffff16145b5b90509392505050565b5f805f90507a184f03e93ff9f4daa797ed6e38ed64bf6a1f0100000000000000008310611a53577a184f03e93ff9f4daa797ed6e38ed64bf6a1f0100000000000000008381611a4957611a4861298c565b5b0492506040810190505b6d04ee2d6d415b85acef81000000008310611a90576d04ee2d6d415b85acef81000000008381611a8657611a8561298c565b5b0492506020810190505b662386f26fc100008310611abf57662386f26fc100008381611ab557611ab461298c565b5b0492506010810190505b6305f5e1008310611ae8576305f5e1008381611ade57611add61298c565b5b0492506008810190505b6127108310611b0d576127108381611b0357611b0261298c565b5b0492506004810190505b60648310611b305760648381611b2657611b2561298c565b5b0492506002810190505b600a8310611b3f576001810190505b80915050919050565b5f73ffffffffffffffffffffffffffffffffffffffff168273ffffffffffffffffffffffffffffffffffffffff1603611bb8575f6040517f64a0ae92000000000000000000000000000000000000000000000000000000008152600401611baf9190611e2c565b60405180910390fd5b5f611bc483835f610c0d565b90505f73ffffffffffffffffffffffffffffffffffffffff168173ffffffffffffffffffffffffffffffffffffffff1614611c36575f6040517f73c6ac6e000000000000000000000000000000000000000000000000000000008152600401611c2d9190611e2c565b60405180910390fd5b505050565b5f604051905090565b5f80fd5b5f80fd5b5f7fffffffff0000000000000000000000000000000000000000000000000000000082169050919050565b611c8081611c4c565b8114611c8a575f80fd5b50565b5f81359050611c9b81611c77565b92915050565b5f60208284031215611cb657611cb5611c44565b5b5f611cc384828501611c8d565b91505092915050565b5f8115159050919050565b611ce081611ccc565b82525050565b5f602082019050611cf95f830184611cd7565b92915050565b5f81519050919050565b5f82825260208201905092915050565b8281835e5f83830152505050565b5f601f19601f8301169050919050565b5f611d4182611cff565b611d4b8185611d09565b9350611d5b818560208601611d19565b611d6481611d27565b840191505092915050565b5f6020820190508181035f830152611d878184611d37565b905092915050565b5f819050919050565b611da181611d8f565b8114611dab575f80fd5b50565b5f81359050611dbc81611d98565b92915050565b5f60208284031215611dd757611dd6611c44565b5b5f611de484828501611dae565b91505092915050565b5f73ffffffffffffffffffffffffffffffffffffffff82169050919050565b5f611e1682611ded565b9050919050565b611e2681611e0c565b82525050565b5f602082019050611e3f5f830184611e1d565b92915050565b611e4e81611e0c565b8114611e58575f80fd5b50565b5f81359050611e6981611e45565b92915050565b5f8060408385031215611e8557611e84611c44565b5b5f611e9285828601611e5b565b9250506020611ea385828601611dae565b9150509250929050565b5f805f60608486031215611ec457611ec3611c44565b5b5f611ed186828701611e5b565b9350506020611ee286828701611e5b565b9250506040611ef386828701611dae565b9150509250925092565b5f60208284031215611f1257611f11611c44565b5b5f611f1f84828501611e5b565b91505092915050565b611f3181611d8f565b82525050565b5f602082019050611f4a5f830184611f28565b92915050565b611f5981611ccc565b8114611f63575f80fd5b50565b5f81359050611f7481611f50565b92915050565b5f8060408385031215611f9057611f8f611c44565b5b5f611f9d85828601611e5b565b9250506020611fae85828601611f66565b9150509250929050565b5f80fd5b5f80fd5b7f4e487b71000000000000000000000000000000000000000000000000000000005f52604160045260245ffd5b611ff682611d27565b810181811067ffffffffffffffff8211171561201557612014611fc0565b5b80604052505050565b5f612027611c3b565b90506120338282611fed565b919050565b5f67ffffffffffffffff82111561205257612051611fc0565b5b61205b82611d27565b9050602081019050919050565b828183375f83830152505050565b5f61208861208384612038565b61201e565b9050828152602081018484840111156120a4576120a3611fbc565b5b6120af848285612068565b509392505050565b5f82601f8301126120cb576120ca611fb8565b5b81356120db848260208601612076565b91505092915050565b5f805f80608085870312156120fc576120fb611c44565b5b5f61210987828801611e5b565b945050602061211a87828801611e5b565b935050604061212b87828801611dae565b925050606085013567ffffffffffffffff81111561214c5761214b611c48565b5b612158878288016120b7565b91505092959194509250565b5f806040838503121561217a57612179611c44565b5b5f61218785828601611e5b565b925050602061219885828601611e5b565b9150509250929050565b5f67ffffffffffffffff8211156121bc576121bb611fc0565b5b6121c582611d27565b9050602081019050919050565b5f6121e46121df846121a2565b61201e565b905082815260208101848484011115612200576121ff611fbc565b5b61220b848285612068565b509392505050565b5f82601f83011261222757612226611fb8565b5b81356122378482602086016121d2565b91505092915050565b5f806040838503121561225657612255611c44565b5b5f61226385828601611e5b565b925050602083013567ffffffffffffffff81111561228457612283611c48565b5b61229085828601612213565b9150509250929050565b7f4e487b71000000000000000000000000000000000000000000000000000000005f52602260045260245ffd5b5f60028204905060018216806122de57607f821691505b6020821081036122f1576122f061229a565b5b50919050565b5f60608201905061230a5f830186611e1d565b6123176020830185611f28565b6123246040830184611e1d565b949350505050565b5f81905092915050565b5f61234082611cff565b61234a818561232c565b935061235a818560208601611d19565b80840191505092915050565b5f6123718285612336565b915061237d8284612336565b91508190509392505050565b7f7b226e616d65223a2022736b696c6c732e63762f646f6e746c657470617265655f8201527f6e64657369676e616e797468696e67222c200000000000000000000000000000602082015250565b5f6123e360328361232c565b91506123ee82612389565b603282019050919050565b7f226465736372697074696f6e223a20224e465420776974682064796e616d69635f8201527f20696d61676520636f6e74656e742e222c200000000000000000000000000000602082015250565b5f61245360328361232c565b915061245e826123f9565b603282019050919050565b7f22696d616765223a2022000000000000000000000000000000000000000000005f82015250565b5f61249d600a8361232c565b91506124a882612469565b600a82019050919050565b7f227d0000000000000000000000000000000000000000000000000000000000005f82015250565b5f6124e760028361232c565b91506124f2826124b3565b600282019050919050565b5f612507826123d7565b915061251282612447565b915061251d82612491565b91506125298284612336565b9150612534826124db565b915081905092915050565b7f646174613a6170706c69636174696f6e2f6a736f6e3b6261736536342c0000005f82015250565b5f612573601d8361232c565b915061257e8261253f565b601d82019050919050565b5f61259382612567565b915061259f8284612336565b915081905092915050565b7f4e487b71000000000000000000000000000000000000000000000000000000005f52601160045260245ffd5b5f6125e182611d8f565b91507fffffffffffffffffffffffffffffffffffffffffffffffffffffffffffffffff8203612613576126126125aa565b5b600182019050919050565b5f81519050919050565b5f82825260208201905092915050565b5f6126428261261e565b61264c8185612628565b935061265c818560208601611d19565b61266581611d27565b840191505092915050565b5f6080820190506126835f830187611e1d565b6126906020830186611e1d565b61269d6040830185611f28565b81810360608301526126af8184612638565b905095945050505050565b5f815190506126c881611c77565b92915050565b5f602082840312156126e3576126e2611c44565b5b5f6126f0848285016126ba565b91505092915050565b5f819050815f5260205f209050919050565b5f6020601f8301049050919050565b5f82821b905092915050565b5f600883026127557fffffffffffffffffffffffffffffffffffffffffffffffffffffffffffffffff8261271a565b61275f868361271a565b95508019841693508086168417925050509392505050565b5f819050919050565b5f61279a61279561279084611d8f565b612777565b611d8f565b9050919050565b5f819050919050565b6127b383612780565b6127c76127bf826127a1565b848454612726565b825550505050565b5f90565b6127db6127cf565b6127e68184846127aa565b505050565b5b81811015612809576127fe5f826127d3565b6001810190506127ec565b5050565b601f82111561284e5761281f816126f9565b6128288461270b565b81016020851015612837578190505b61284b6128438561270b565b8301826127eb565b50505b505050565b5f82821c905092915050565b5f61286e5f1984600802612853565b1980831691505092915050565b5f612886838361285f565b9150826002028217905092915050565b61289f82611cff565b67ffffffffffffffff8111156128b8576128b7611fc0565b5b6128c282546122c7565b6128cd82828561280d565b5f60209050601f8311600181146128fe575f84156128ec578287015190505b6128f6858261287b565b86555061295d565b601f19841661290c866126f9565b5f5b828110156129335784890151825560018201915060208501945060208101905061290e565b86831015612950578489015161294c601f89168261285f565b8355505b6001600288020188555050505b505050505050565b5f6040820190506129785f830185611e1d565b6129856020830184611f28565b9392505050565b7f4e487b71000000000000000000000000000000000000000000000000000000005f52601260045260245ffd5b5f6129c382611d8f565b91506129ce83611d8f565b92508282026129dc81611d8f565b915082820484148315176129f3576129f26125aa565b5b5092915050565b5f612a0482611d8f565b9150612a0f83611d8f565b9250828201905080821115612a2757612a266125aa565b5b92915050565b5f612a3782611d8f565b9150612a4283611d8f565b925082612a5257612a5161298c565b5b82820490509291505056fe4142434445464748494a4b4c4d4e4f505152535455565758595a6162636465666768696a6b6c6d6e6f707172737475767778797a303132333435363738392b2fa26469706673582212201d649882c79005a899d3ab5f1e65ccc9f0f361051ef7e2eb43c9850a08dd30fe64736f6c634300081a0033",
			"opcodes": "PUSH1 0x80 PUSH1 0x40 MSTORE CALLVALUE DUP1 ISZERO PUSH2 0xF JUMPI PUSH0 DUP1 REVERT JUMPDEST POP CALLER PUSH1 0x40 MLOAD DUP1 PUSH1 0x40 ADD PUSH1 0x40 MSTORE DUP1 PUSH1 0x9 DUP2 MSTORE PUSH1 0x20 ADD PUSH32 0x536B696C6C734E46540000000000000000000000000000000000000000000000 DUP2 MSTORE POP PUSH1 0x40 MLOAD DUP1 PUSH1 0x40 ADD PUSH1 0x40 MSTORE DUP1 PUSH1 0x4 DUP2 MSTORE PUSH1 0x20 ADD PUSH32 0x534E465400000000000000000000000000000000000000000000000000000000 DUP2 MSTORE POP DUP2 PUSH0 SWAP1 DUP2 PUSH2 0x8B SWAP2 SWAP1 PUSH2 0x427 JUMP JUMPDEST POP DUP1 PUSH1 0x1 SWAP1 DUP2 PUSH2 0x9B SWAP2 SWAP1 PUSH2 0x427 JUMP JUMPDEST POP POP POP PUSH0 PUSH20 0xFFFFFFFFFFFFFFFFFFFFFFFFFFFFFFFFFFFFFFFF AND DUP2 PUSH20 0xFFFFFFFFFFFFFFFFFFFFFFFFFFFFFFFFFFFFFFFF AND SUB PUSH2 0x10E JUMPI PUSH0 PUSH1 0x40 MLOAD PUSH32 0x1E4FBDF700000000000000000000000000000000000000000000000000000000 DUP2 MSTORE PUSH1 0x4 ADD PUSH2 0x105 SWAP2 SWAP1 PUSH2 0x535 JUMP JUMPDEST PUSH1 0x40 MLOAD DUP1 SWAP2 SUB SWAP1 REVERT JUMPDEST PUSH2 0x11D DUP2 PUSH2 0x12A PUSH1 0x20 SHL PUSH1 0x20 SHR JUMP JUMPDEST POP PUSH0 PUSH1 0x8 DUP2 SWAP1 SSTORE POP PUSH2 0x54E JUMP JUMPDEST PUSH0 PUSH1 0x7 PUSH0 SWAP1 SLOAD SWAP1 PUSH2 0x100 EXP SWAP1 DIV PUSH20 0xFFFFFFFFFFFFFFFFFFFFFFFFFFFFFFFFFFFFFFFF AND SWAP1 POP DUP2 PUSH1 0x7 PUSH0 PUSH2 0x100 EXP DUP2 SLOAD DUP2 PUSH20 0xFFFFFFFFFFFFFFFFFFFFFFFFFFFFFFFFFFFFFFFF MUL NOT AND SWAP1 DUP4 PUSH20 0xFFFFFFFFFFFFFFFFFFFFFFFFFFFFFFFFFFFFFFFF AND MUL OR SWAP1 SSTORE POP DUP2 PUSH20 0xFFFFFFFFFFFFFFFFFFFFFFFFFFFFFFFFFFFFFFFF AND DUP2 PUSH20 0xFFFFFFFFFFFFFFFFFFFFFFFFFFFFFFFFFFFFFFFF AND PUSH32 0x8BE0079C531659141344CD1FD0A4F28419497F9722A3DAAFE3B4186F6B6457E0 PUSH1 0x40 MLOAD PUSH1 0x40 MLOAD DUP1 SWAP2 SUB SWAP1 LOG3 POP POP JUMP JUMPDEST PUSH0 DUP2 MLOAD SWAP1 POP SWAP2 SWAP1 POP JUMP JUMPDEST PUSH32 0x4E487B7100000000000000000000000000000000000000000000000000000000 PUSH0 MSTORE PUSH1 0x41 PUSH1 0x4 MSTORE PUSH1 0x24 PUSH0 REVERT JUMPDEST PUSH32 0x4E487B7100000000000000000000000000000000000000000000000000000000 PUSH0 MSTORE PUSH1 0x22 PUSH1 0x4 MSTORE PUSH1 0x24 PUSH0 REVERT JUMPDEST PUSH0 PUSH1 0x2 DUP3 DIV SWAP1 POP PUSH1 0x1 DUP3 AND DUP1 PUSH2 0x268 JUMPI PUSH1 0x7F DUP3 AND SWAP2 POP JUMPDEST PUSH1 0x20 DUP3 LT DUP2 SUB PUSH2 0x27B JUMPI PUSH2 0x27A PUSH2 0x224 JUMP JUMPDEST JUMPDEST POP SWAP2 SWAP1 POP JUMP JUMPDEST PUSH0 DUP2 SWAP1 POP DUP2 PUSH0 MSTORE PUSH1 0x20 PUSH0 KECCAK256 SWAP1 POP SWAP2 SWAP1 POP JUMP JUMPDEST PUSH0 PUSH1 0x20 PUSH1 0x1F DUP4 ADD DIV SWAP1 POP SWAP2 SWAP1 POP JUMP JUMPDEST PUSH0 DUP3 DUP3 SHL SWAP1 POP SWAP3 SWAP2 POP POP JUMP JUMPDEST PUSH0 PUSH1 0x8 DUP4 MUL PUSH2 0x2DD PUSH32 0xFFFFFFFFFFFFFFFFFFFFFFFFFFFFFFFFFFFFFFFFFFFFFFFFFFFFFFFFFFFFFFFF DUP3 PUSH2 0x2A2 JUMP JUMPDEST PUSH2 0x2E7 DUP7 DUP4 PUSH2 0x2A2 JUMP JUMPDEST SWAP6 POP DUP1 NOT DUP5 AND SWAP4 POP DUP1 DUP7 AND DUP5 OR SWAP3 POP POP POP SWAP4 SWAP3 POP POP POP JUMP JUMPDEST PUSH0 DUP2 SWAP1 POP SWAP2 SWAP1 POP JUMP JUMPDEST PUSH0 DUP2 SWAP1 POP SWAP2 SWAP1 POP JUMP JUMPDEST PUSH0 PUSH2 0x32B PUSH2 0x326 PUSH2 0x321 DUP5 PUSH2 0x2FF JUMP JUMPDEST PUSH2 0x308 JUMP JUMPDEST PUSH2 0x2FF JUMP JUMPDEST SWAP1 POP SWAP2 SWAP1 POP JUMP JUMPDEST PUSH0 DUP2 SWAP1 POP SWAP2 SWAP1 POP JUMP JUMPDEST PUSH2 0x344 DUP4 PUSH2 0x311 JUMP JUMPDEST PUSH2 0x358 PUSH2 0x350 DUP3 PUSH2 0x332 JUMP JUMPDEST DUP5 DUP5 SLOAD PUSH2 0x2AE JUMP JUMPDEST DUP3 SSTORE POP POP POP POP JUMP JUMPDEST PUSH0 SWAP1 JUMP JUMPDEST PUSH2 0x36C PUSH2 0x360 JUMP JUMPDEST PUSH2 0x377 DUP2 DUP5 DUP5 PUSH2 0x33B JUMP JUMPDEST POP POP POP JUMP JUMPDEST JUMPDEST DUP2 DUP2 LT ISZERO PUSH2 0x39A JUMPI PUSH2 0x38F PUSH0 DUP3 PUSH2 0x364 JUMP JUMPDEST PUSH1 0x1 DUP2 ADD SWAP1 POP PUSH2 0x37D JUMP JUMPDEST POP POP JUMP JUMPDEST PUSH1 0x1F DUP3 GT ISZERO PUSH2 0x3DF JUMPI PUSH2 0x3B0 DUP2 PUSH2 0x281 JUMP JUMPDEST PUSH2 0x3B9 DUP5 PUSH2 0x293 JUMP JUMPDEST DUP2 ADD PUSH1 0x20 DUP6 LT ISZERO PUSH2 0x3C8 JUMPI DUP2 SWAP1 POP JUMPDEST PUSH2 0x3DC PUSH2 0x3D4 DUP6 PUSH2 0x293 JUMP JUMPDEST DUP4 ADD DUP3 PUSH2 0x37C JUMP JUMPDEST POP POP JUMPDEST POP POP POP JUMP JUMPDEST PUSH0 DUP3 DUP3 SHR SWAP1 POP SWAP3 SWAP2 POP POP JUMP JUMPDEST PUSH0 PUSH2 0x3FF PUSH0 NOT DUP5 PUSH1 0x8 MUL PUSH2 0x3E4 JUMP JUMPDEST NOT DUP1 DUP4 AND SWAP2 POP POP SWAP3 SWAP2 POP POP JUMP JUMPDEST PUSH0 PUSH2 0x417 DUP4 DUP4 PUSH2 0x3F0 JUMP JUMPDEST SWAP2 POP DUP3 PUSH1 0x2 MUL DUP3 OR SWAP1 POP SWAP3 SWAP2 POP POP JUMP JUMPDEST PUSH2 0x430 DUP3 PUSH2 0x1ED JUMP JUMPDEST PUSH8 0xFFFFFFFFFFFFFFFF DUP2 GT ISZERO PUSH2 0x449 JUMPI PUSH2 0x448 PUSH2 0x1F7 JUMP JUMPDEST JUMPDEST PUSH2 0x453 DUP3 SLOAD PUSH2 0x251 JUMP JUMPDEST PUSH2 0x45E DUP3 DUP3 DUP6 PUSH2 0x39E JUMP JUMPDEST PUSH0 PUSH1 0x20 SWAP1 POP PUSH1 0x1F DUP4 GT PUSH1 0x1 DUP2 EQ PUSH2 0x48F JUMPI PUSH0 DUP5 ISZERO PUSH2 0x47D JUMPI DUP3 DUP8 ADD MLOAD SWAP1 POP JUMPDEST PUSH2 0x487 DUP6 DUP3 PUSH2 0x40C JUMP JUMPDEST DUP7 SSTORE POP PUSH2 0x4EE JUMP JUMPDEST PUSH1 0x1F NOT DUP5 AND PUSH2 0x49D DUP7 PUSH2 0x281 JUMP JUMPDEST PUSH0 JUMPDEST DUP3 DUP2 LT ISZERO PUSH2 0x4C4 JUMPI DUP5 DUP10 ADD MLOAD DUP3 SSTORE PUSH1 0x1 DUP3 ADD SWAP2 POP PUSH1 0x20 DUP6 ADD SWAP5 POP PUSH1 0x20 DUP2 ADD SWAP1 POP PUSH2 0x49F JUMP JUMPDEST DUP7 DUP4 LT ISZERO PUSH2 0x4E1 JUMPI DUP5 DUP10 ADD MLOAD PUSH2 0x4DD PUSH1 0x1F DUP10 AND DUP3 PUSH2 0x3F0 JUMP JUMPDEST DUP4 SSTORE POP JUMPDEST PUSH1 0x1 PUSH1 0x2 DUP9 MUL ADD DUP9 SSTORE POP POP POP JUMPDEST POP POP POP POP POP POP JUMP JUMPDEST PUSH0 PUSH20 0xFFFFFFFFFFFFFFFFFFFFFFFFFFFFFFFFFFFFFFFF DUP3 AND SWAP1 POP SWAP2 SWAP1 POP JUMP JUMPDEST PUSH0 PUSH2 0x51F DUP3 PUSH2 0x4F6 JUMP JUMPDEST SWAP1 POP SWAP2 SWAP1 POP JUMP JUMPDEST PUSH2 0x52F DUP2 PUSH2 0x515 JUMP JUMPDEST DUP3 MSTORE POP POP JUMP JUMPDEST PUSH0 PUSH1 0x20 DUP3 ADD SWAP1 POP PUSH2 0x548 PUSH0 DUP4 ADD DUP5 PUSH2 0x526 JUMP JUMPDEST SWAP3 SWAP2 POP POP JUMP JUMPDEST PUSH2 0x2AD3 DUP1 PUSH2 0x55B PUSH0 CODECOPY PUSH0 RETURN INVALID PUSH1 0x80 PUSH1 0x40 MSTORE CALLVALUE DUP1 ISZERO PUSH2 0xF JUMPI PUSH0 DUP1 REVERT JUMPDEST POP PUSH1 0x4 CALLDATASIZE LT PUSH2 0x114 JUMPI PUSH0 CALLDATALOAD PUSH1 0xE0 SHR DUP1 PUSH4 0x8DA5CB5B GT PUSH2 0xA0 JUMPI DUP1 PUSH4 0xC87B56DD GT PUSH2 0x6F JUMPI DUP1 PUSH4 0xC87B56DD EQ PUSH2 0x2C8 JUMPI DUP1 PUSH4 0xD082E381 EQ PUSH2 0x2F8 JUMPI DUP1 PUSH4 0xE985E9C5 EQ PUSH2 0x316 JUMPI DUP1 PUSH4 0xEACABE14 EQ PUSH2 0x346 JUMPI DUP1 PUSH4 0xF2FDE38B EQ PUSH2 0x376 JUMPI PUSH2 0x114 JUMP JUMPDEST DUP1 PUSH4 0x8DA5CB5B EQ PUSH2 0x254 JUMPI DUP1 PUSH4 0x95D89B41 EQ PUSH2 0x272 JUMPI DUP1 PUSH4 0xA22CB465 EQ PUSH2 0x290 JUMPI DUP1 PUSH4 0xB88D4FDE EQ PUSH2 0x2AC JUMPI PUSH2 0x114 JUMP JUMPDEST DUP1 PUSH4 0x23B872DD GT PUSH2 0xE7 JUMPI DUP1 PUSH4 0x23B872DD EQ PUSH2 0x1B2 JUMPI DUP1 PUSH4 0x42842E0E EQ PUSH2 0x1CE JUMPI DUP1 PUSH4 0x6352211E EQ PUSH2 0x1EA JUMPI DUP1 PUSH4 0x70A08231 EQ PUSH2 0x21A JUMPI DUP1 PUSH4 0x715018A6 EQ PUSH2 0x24A JUMPI PUSH2 0x114 JUMP JUMPDEST DUP1 PUSH4 0x1FFC9A7 EQ PUSH2 0x118 JUMPI DUP1 PUSH4 0x6FDDE03 EQ PUSH2 0x148 JUMPI DUP1 PUSH4 0x81812FC EQ PUSH2 0x166 JUMPI DUP1 PUSH4 0x95EA7B3 EQ PUSH2 0x196 JUMPI JUMPDEST PUSH0 DUP1 REVERT JUMPDEST PUSH2 0x132 PUSH1 0x4 DUP1 CALLDATASIZE SUB DUP2 ADD SWAP1 PUSH2 0x12D SWAP2 SWAP1 PUSH2 0x1CA1 JUMP JUMPDEST PUSH2 0x392 JUMP JUMPDEST PUSH1 0x40 MLOAD PUSH2 0x13F SWAP2 SWAP1 PUSH2 0x1CE6 JUMP JUMPDEST PUSH1 0x40 MLOAD DUP1 SWAP2 SUB SWAP1 RETURN JUMPDEST PUSH2 0x150 PUSH2 0x3F2 JUMP JUMPDEST PUSH1 0x40 MLOAD PUSH2 0x15D SWAP2 SWAP1 PUSH2 0x1D6F JUMP JUMPDEST PUSH1 0x40 MLOAD DUP1 SWAP2 SUB SWAP1 RETURN JUMPDEST PUSH2 0x180 PUSH1 0x4 DUP1 CALLDATASIZE SUB DUP2 ADD SWAP1 PUSH2 0x17B SWAP2 SWAP1 PUSH2 0x1DC2 JUMP JUMPDEST PUSH2 0x481 JUMP JUMPDEST PUSH1 0x40 MLOAD PUSH2 0x18D SWAP2 SWAP1 PUSH2 0x1E2C JUMP JUMPDEST PUSH1 0x40 MLOAD DUP1 SWAP2 SUB SWAP1 RETURN JUMPDEST PUSH2 0x1B0 PUSH1 0x4 DUP1 CALLDATASIZE SUB DUP2 ADD SWAP1 PUSH2 0x1AB SWAP2 SWAP1 PUSH2 0x1E6F JUMP JUMPDEST PUSH2 0x49C JUMP JUMPDEST STOP JUMPDEST PUSH2 0x1CC PUSH1 0x4 DUP1 CALLDATASIZE SUB DUP2 ADD SWAP1 PUSH2 0x1C7 SWAP2 SWAP1 PUSH2 0x1EAD JUMP JUMPDEST PUSH2 0x4B2 JUMP JUMPDEST STOP JUMPDEST PUSH2 0x1E8 PUSH1 0x4 DUP1 CALLDATASIZE SUB DUP2 ADD SWAP1 PUSH2 0x1E3 SWAP2 SWAP1 PUSH2 0x1EAD JUMP JUMPDEST PUSH2 0x5B1 JUMP JUMPDEST STOP JUMPDEST PUSH2 0x204 PUSH1 0x4 DUP1 CALLDATASIZE SUB DUP2 ADD SWAP1 PUSH2 0x1FF SWAP2 SWAP1 PUSH2 0x1DC2 JUMP JUMPDEST PUSH2 0x5D0 JUMP JUMPDEST PUSH1 0x40 MLOAD PUSH2 0x211 SWAP2 SWAP1 PUSH2 0x1E2C JUMP JUMPDEST PUSH1 0x40 MLOAD DUP1 SWAP2 SUB SWAP1 RETURN JUMPDEST PUSH2 0x234 PUSH1 0x4 DUP1 CALLDATASIZE SUB DUP2 ADD SWAP1 PUSH2 0x22F SWAP2 SWAP1 PUSH2 0x1EFD JUMP JUMPDEST PUSH2 0x5E1 JUMP JUMPDEST PUSH1 0x40 MLOAD PUSH2 0x241 SWAP2 SWAP1 PUSH2 0x1F37 JUMP JUMPDEST PUSH1 0x40 MLOAD DUP1 SWAP2 SUB SWAP1 RETURN JUMPDEST PUSH2 0x252 PUSH2 0x697 JUMP JUMPDEST STOP JUMPDEST PUSH2 0x25C PUSH2 0x6AA JUMP JUMPDEST PUSH1 0x40 MLOAD PUSH2 0x269 SWAP2 SWAP1 PUSH2 0x1E2C JUMP JUMPDEST PUSH1 0x40 MLOAD DUP1 SWAP2 SUB SWAP1 RETURN JUMPDEST PUSH2 0x27A PUSH2 0x6D2 JUMP JUMPDEST PUSH1 0x40 MLOAD PUSH2 0x287 SWAP2 SWAP1 PUSH2 0x1D6F JUMP JUMPDEST PUSH1 0x40 MLOAD DUP1 SWAP2 SUB SWAP1 RETURN JUMPDEST PUSH2 0x2AA PUSH1 0x4 DUP1 CALLDATASIZE SUB DUP2 ADD SWAP1 PUSH2 0x2A5 SWAP2 SWAP1 PUSH2 0x1F7A JUMP JUMPDEST PUSH2 0x762 JUMP JUMPDEST STOP JUMPDEST PUSH2 0x2C6 PUSH1 0x4 DUP1 CALLDATASIZE SUB DUP2 ADD SWAP1 PUSH2 0x2C1 SWAP2 SWAP1 PUSH2 0x20E4 JUMP JUMPDEST PUSH2 0x778 JUMP JUMPDEST STOP JUMPDEST PUSH2 0x2E2 PUSH1 0x4 DUP1 CALLDATASIZE SUB DUP2 ADD SWAP1 PUSH2 0x2DD SWAP2 SWAP1 PUSH2 0x1DC2 JUMP JUMPDEST PUSH2 0x79D JUMP JUMPDEST PUSH1 0x40 MLOAD PUSH2 0x2EF SWAP2 SWAP1 PUSH2 0x1D6F JUMP JUMPDEST PUSH1 0x40 MLOAD DUP1 SWAP2 SUB SWAP1 RETURN JUMPDEST PUSH2 0x300 PUSH2 0x8A8 JUMP JUMPDEST PUSH1 0x40 MLOAD PUSH2 0x30D SWAP2 SWAP1 PUSH2 0x1F37 JUMP JUMPDEST PUSH1 0x40 MLOAD DUP1 SWAP2 SUB SWAP1 RETURN JUMPDEST PUSH2 0x330 PUSH1 0x4 DUP1 CALLDATASIZE SUB DUP2 ADD SWAP1 PUSH2 0x32B SWAP2 SWAP1 PUSH2 0x2164 JUMP JUMPDEST PUSH2 0x8AE JUMP JUMPDEST PUSH1 0x40 MLOAD PUSH2 0x33D SWAP2 SWAP1 PUSH2 0x1CE6 JUMP JUMPDEST PUSH1 0x40 MLOAD DUP1 SWAP2 SUB SWAP1 RETURN JUMPDEST PUSH2 0x360 PUSH1 0x4 DUP1 CALLDATASIZE SUB DUP2 ADD SWAP1 PUSH2 0x35B SWAP2 SWAP1 PUSH2 0x2240 JUMP JUMPDEST PUSH2 0x93C JUMP JUMPDEST PUSH1 0x40 MLOAD PUSH2 0x36D SWAP2 SWAP1 PUSH2 0x1F37 JUMP JUMPDEST PUSH1 0x40 MLOAD DUP1 SWAP2 SUB SWAP1 RETURN JUMPDEST PUSH2 0x390 PUSH1 0x4 DUP1 CALLDATASIZE SUB DUP2 ADD SWAP1 PUSH2 0x38B SWAP2 SWAP1 PUSH2 0x1EFD JUMP JUMPDEST PUSH2 0x9D0 JUMP JUMPDEST STOP JUMPDEST PUSH0 PUSH4 0x49064906 PUSH1 0xE0 SHL PUSH28 0xFFFFFFFFFFFFFFFFFFFFFFFFFFFFFFFFFFFFFFFFFFFFFFFFFFFFFFFF NOT AND DUP3 PUSH28 0xFFFFFFFFFFFFFFFFFFFFFFFFFFFFFFFFFFFFFFFFFFFFFFFFFFFFFFFF NOT AND EQ DUP1 PUSH2 0x3EB JUMPI POP PUSH2 0x3EA DUP3 PUSH2 0xA54 JUMP JUMPDEST JUMPDEST SWAP1 POP SWAP2 SWAP1 POP JUMP JUMPDEST PUSH1 0x60 PUSH0 DUP1 SLOAD PUSH2 0x400 SWAP1 PUSH2 0x22C7 JUMP JUMPDEST DUP1 PUSH1 0x1F ADD PUSH1 0x20 DUP1 SWAP2 DIV MUL PUSH1 0x20 ADD PUSH1 0x40 MLOAD SWAP1 DUP2 ADD PUSH1 0x40 MSTORE DUP1 SWAP3 SWAP2 SWAP1 DUP2 DUP2 MSTORE PUSH1 0x20 ADD DUP3 DUP1 SLOAD PUSH2 0x42C SWAP1 PUSH2 0x22C7 JUMP JUMPDEST DUP1 ISZERO PUSH2 0x477 JUMPI DUP1 PUSH1 0x1F LT PUSH2 0x44E JUMPI PUSH2 0x100 DUP1 DUP4 SLOAD DIV MUL DUP4 MSTORE SWAP2 PUSH1 0x20 ADD SWAP2 PUSH2 0x477 JUMP JUMPDEST DUP3 ADD SWAP2 SWAP1 PUSH0 MSTORE PUSH1 0x20 PUSH0 KECCAK256 SWAP1 JUMPDEST DUP2 SLOAD DUP2 MSTORE SWAP1 PUSH1 0x1 ADD SWAP1 PUSH1 0x20 ADD DUP1 DUP4 GT PUSH2 0x45A JUMPI DUP3 SWAP1 SUB PUSH1 0x1F AND DUP3 ADD SWAP2 JUMPDEST POP POP POP POP POP SWAP1 POP SWAP1 JUMP JUMPDEST PUSH0 PUSH2 0x48B DUP3 PUSH2 0xB35 JUMP JUMPDEST POP PUSH2 0x495 DUP3 PUSH2 0xBBB JUMP JUMPDEST SWAP1 POP SWAP2 SWAP1 POP JUMP JUMPDEST PUSH2 0x4AE DUP3 DUP3 PUSH2 0x4A9 PUSH2 0xBF4 JUMP JUMPDEST PUSH2 0xBFB JUMP JUMPDEST POP POP JUMP JUMPDEST PUSH0 PUSH20 0xFFFFFFFFFFFFFFFFFFFFFFFFFFFFFFFFFFFFFFFF AND DUP3 PUSH20 0xFFFFFFFFFFFFFFFFFFFFFFFFFFFFFFFFFFFFFFFF AND SUB PUSH2 0x522 JUMPI PUSH0 PUSH1 0x40 MLOAD PUSH32 0x64A0AE9200000000000000000000000000000000000000000000000000000000 DUP2 MSTORE PUSH1 0x4 ADD PUSH2 0x519 SWAP2 SWAP1 PUSH2 0x1E2C JUMP JUMPDEST PUSH1 0x40 MLOAD DUP1 SWAP2 SUB SWAP1 REVERT JUMPDEST PUSH0 PUSH2 0x535 DUP4 DUP4 PUSH2 0x530 PUSH2 0xBF4 JUMP JUMPDEST PUSH2 0xC0D JUMP JUMPDEST SWAP1 POP DUP4 PUSH20 0xFFFFFFFFFFFFFFFFFFFFFFFFFFFFFFFFFFFFFFFF AND DUP2 PUSH20 0xFFFFFFFFFFFFFFFFFFFFFFFFFFFFFFFFFFFFFFFF AND EQ PUSH2 0x5AB JUMPI DUP4 DUP3 DUP3 PUSH1 0x40 MLOAD PUSH32 0x64283D7B00000000000000000000000000000000000000000000000000000000 DUP2 MSTORE PUSH1 0x4 ADD PUSH2 0x5A2 SWAP4 SWAP3 SWAP2 SWAP1 PUSH2 0x22F7 JUMP JUMPDEST PUSH1 0x40 MLOAD DUP1 SWAP2 SUB SWAP1 REVERT JUMPDEST POP POP POP POP JUMP JUMPDEST PUSH2 0x5CB DUP4 DUP4 DUP4 PUSH1 0x40 MLOAD DUP1 PUSH1 0x20 ADD PUSH1 0x40 MSTORE DUP1 PUSH0 DUP2 MSTORE POP PUSH2 0x778 JUMP JUMPDEST POP POP POP JUMP JUMPDEST PUSH0 PUSH2 0x5DA DUP3 PUSH2 0xB35 JUMP JUMPDEST SWAP1 POP SWAP2 SWAP1 POP JUMP JUMPDEST PUSH0 DUP1 PUSH20 0xFFFFFFFFFFFFFFFFFFFFFFFFFFFFFFFFFFFFFFFF AND DUP3 PUSH20 0xFFFFFFFFFFFFFFFFFFFFFFFFFFFFFFFFFFFFFFFF AND SUB PUSH2 0x652 JUMPI PUSH0 PUSH1 0x40 MLOAD PUSH32 0x89C62B6400000000000000000000000000000000000000000000000000000000 DUP2 MSTORE PUSH1 0x4 ADD PUSH2 0x649 SWAP2 SWAP1 PUSH2 0x1E2C JUMP JUMPDEST PUSH1 0x40 MLOAD DUP1 SWAP2 SUB SWAP1 REVERT JUMPDEST PUSH1 0x3 PUSH0 DUP4 PUSH20 0xFFFFFFFFFFFFFFFFFFFFFFFFFFFFFFFFFFFFFFFF AND PUSH20 0xFFFFFFFFFFFFFFFFFFFFFFFFFFFFFFFFFFFFFFFF AND DUP2 MSTORE PUSH1 0x20 ADD SWAP1 DUP2 MSTORE PUSH1 0x20 ADD PUSH0 KECCAK256 SLOAD SWAP1 POP SWAP2 SWAP1 POP JUMP JUMPDEST PUSH2 0x69F PUSH2 0xE18 JUMP JUMPDEST PUSH2 0x6A8 PUSH0 PUSH2 0xE9F JUMP JUMPDEST JUMP JUMPDEST PUSH0 PUSH1 0x7 PUSH0 SWAP1 SLOAD SWAP1 PUSH2 0x100 EXP SWAP1 DIV PUSH20 0xFFFFFFFFFFFFFFFFFFFFFFFFFFFFFFFFFFFFFFFF AND SWAP1 POP SWAP1 JUMP JUMPDEST PUSH1 0x60 PUSH1 0x1 DUP1 SLOAD PUSH2 0x6E1 SWAP1 PUSH2 0x22C7 JUMP JUMPDEST DUP1 PUSH1 0x1F ADD PUSH1 0x20 DUP1 SWAP2 DIV MUL PUSH1 0x20 ADD PUSH1 0x40 MLOAD SWAP1 DUP2 ADD PUSH1 0x40 MSTORE DUP1 SWAP3 SWAP2 SWAP1 DUP2 DUP2 MSTORE PUSH1 0x20 ADD DUP3 DUP1 SLOAD PUSH2 0x70D SWAP1 PUSH2 0x22C7 JUMP JUMPDEST DUP1 ISZERO PUSH2 0x758 JUMPI DUP1 PUSH1 0x1F LT PUSH2 0x72F JUMPI PUSH2 0x100 DUP1 DUP4 SLOAD DIV MUL DUP4 MSTORE SWAP2 PUSH1 0x20 ADD SWAP2 PUSH2 0x758 JUMP JUMPDEST DUP3 ADD SWAP2 SWAP1 PUSH0 MSTORE PUSH1 0x20 PUSH0 KECCAK256 SWAP1 JUMPDEST DUP2 SLOAD DUP2 MSTORE SWAP1 PUSH1 0x1 ADD SWAP1 PUSH1 0x20 ADD DUP1 DUP4 GT PUSH2 0x73B JUMPI DUP3 SWAP1 SUB PUSH1 0x1F AND DUP3 ADD SWAP2 JUMPDEST POP POP POP POP POP SWAP1 POP SWAP1 JUMP JUMPDEST PUSH2 0x774 PUSH2 0x76D PUSH2 0xBF4 JUMP JUMPDEST DUP4 DUP4 PUSH2 0xF62 JUMP JUMPDEST POP POP JUMP JUMPDEST PUSH2 0x783 DUP5 DUP5 DUP5 PUSH2 0x4B2 JUMP JUMPDEST PUSH2 0x797 PUSH2 0x78E PUSH2 0xBF4 JUMP JUMPDEST DUP6 DUP6 DUP6 DUP6 PUSH2 0x10CB JUMP JUMPDEST POP POP POP POP JUMP JUMPDEST PUSH1 0x60 PUSH2 0x7A8 DUP3 PUSH2 0xB35 JUMP JUMPDEST POP PUSH0 PUSH1 0x6 PUSH0 DUP5 DUP2 MSTORE PUSH1 0x20 ADD SWAP1 DUP2 MSTORE PUSH1 0x20 ADD PUSH0 KECCAK256 DUP1 SLOAD PUSH2 0x7C6 SWAP1 PUSH2 0x22C7 JUMP JUMPDEST DUP1 PUSH1 0x1F ADD PUSH1 0x20 DUP1 SWAP2 DIV MUL PUSH1 0x20 ADD PUSH1 0x40 MLOAD SWAP1 DUP2 ADD PUSH1 0x40 MSTORE DUP1 SWAP3 SWAP2 SWAP1 DUP2 DUP2 MSTORE PUSH1 0x20 ADD DUP3 DUP1 SLOAD PUSH2 0x7F2 SWAP1 PUSH2 0x22C7 JUMP JUMPDEST DUP1 ISZERO PUSH2 0x83D JUMPI DUP1 PUSH1 0x1F LT PUSH2 0x814 JUMPI PUSH2 0x100 DUP1 DUP4 SLOAD DIV MUL DUP4 MSTORE SWAP2 PUSH1 0x20 ADD SWAP2 PUSH2 0x83D JUMP JUMPDEST DUP3 ADD SWAP2 SWAP1 PUSH0 MSTORE PUSH1 0x20 PUSH0 KECCAK256 SWAP1 JUMPDEST DUP2 SLOAD DUP2 MSTORE SWAP1 PUSH1 0x1 ADD SWAP1 PUSH1 0x20 ADD DUP1 DUP4 GT PUSH2 0x820 JUMPI DUP3 SWAP1 SUB PUSH1 0x1F AND DUP3 ADD SWAP2 JUMPDEST POP POP POP POP POP SWAP1 POP PUSH0 PUSH2 0x84D PUSH2 0x1277 JUMP JUMPDEST SWAP1 POP PUSH0 DUP2 MLOAD SUB PUSH2 0x861 JUMPI DUP2 SWAP3 POP POP POP PUSH2 0x8A3 JUMP JUMPDEST PUSH0 DUP3 MLOAD GT ISZERO PUSH2 0x895 JUMPI DUP1 DUP3 PUSH1 0x40 MLOAD PUSH1 0x20 ADD PUSH2 0x87D SWAP3 SWAP2 SWAP1 PUSH2 0x2366 JUMP JUMPDEST PUSH1 0x40 MLOAD PUSH1 0x20 DUP2 DUP4 SUB SUB DUP2 MSTORE SWAP1 PUSH1 0x40 MSTORE SWAP3 POP POP POP PUSH2 0x8A3 JUMP JUMPDEST PUSH2 0x89E DUP5 PUSH2 0x128D JUMP JUMPDEST SWAP3 POP POP POP JUMPDEST SWAP2 SWAP1 POP JUMP JUMPDEST PUSH1 0x8 SLOAD DUP2 JUMP JUMPDEST PUSH0 PUSH1 0x5 PUSH0 DUP5 PUSH20 0xFFFFFFFFFFFFFFFFFFFFFFFFFFFFFFFFFFFFFFFF AND PUSH20 0xFFFFFFFFFFFFFFFFFFFFFFFFFFFFFFFFFFFFFFFF AND DUP2 MSTORE PUSH1 0x20 ADD SWAP1 DUP2 MSTORE PUSH1 0x20 ADD PUSH0 KECCAK256 PUSH0 DUP4 PUSH20 0xFFFFFFFFFFFFFFFFFFFFFFFFFFFFFFFFFFFFFFFF AND PUSH20 0xFFFFFFFFFFFFFFFFFFFFFFFFFFFFFFFFFFFFFFFF AND DUP2 MSTORE PUSH1 0x20 ADD SWAP1 DUP2 MSTORE PUSH1 0x20 ADD PUSH0 KECCAK256 PUSH0 SWAP1 SLOAD SWAP1 PUSH2 0x100 EXP SWAP1 DIV PUSH1 0xFF AND SWAP1 POP SWAP3 SWAP2 POP POP JUMP JUMPDEST PUSH0 PUSH2 0x945 PUSH2 0xE18 JUMP JUMPDEST PUSH0 PUSH1 0x8 SLOAD SWAP1 POP PUSH2 0x955 DUP5 DUP3 PUSH2 0x12F3 JUMP JUMPDEST PUSH0 PUSH2 0x97E DUP5 PUSH1 0x40 MLOAD PUSH1 0x20 ADD PUSH2 0x96A SWAP2 SWAP1 PUSH2 0x24FD JUMP JUMPDEST PUSH1 0x40 MLOAD PUSH1 0x20 DUP2 DUP4 SUB SUB DUP2 MSTORE SWAP1 PUSH1 0x40 MSTORE PUSH2 0x1310 JUMP JUMPDEST SWAP1 POP PUSH0 DUP2 PUSH1 0x40 MLOAD PUSH1 0x20 ADD PUSH2 0x992 SWAP2 SWAP1 PUSH2 0x2589 JUMP JUMPDEST PUSH1 0x40 MLOAD PUSH1 0x20 DUP2 DUP4 SUB SUB DUP2 MSTORE SWAP1 PUSH1 0x40 MSTORE SWAP1 POP PUSH2 0x9AD DUP4 DUP3 PUSH2 0x133D JUMP JUMPDEST PUSH1 0x8 PUSH0 DUP2 SLOAD DUP1 SWAP3 SWAP2 SWAP1 PUSH2 0x9BF SWAP1 PUSH2 0x25D7 JUMP JUMPDEST SWAP2 SWAP1 POP SSTORE POP DUP3 SWAP4 POP POP POP POP SWAP3 SWAP2 POP POP JUMP JUMPDEST PUSH2 0x9D8 PUSH2 0xE18 JUMP JUMPDEST PUSH0 PUSH20 0xFFFFFFFFFFFFFFFFFFFFFFFFFFFFFFFFFFFFFFFF AND DUP2 PUSH20 0xFFFFFFFFFFFFFFFFFFFFFFFFFFFFFFFFFFFFFFFF AND SUB PUSH2 0xA48 JUMPI PUSH0 PUSH1 0x40 MLOAD PUSH32 0x1E4FBDF700000000000000000000000000000000000000000000000000000000 DUP2 MSTORE PUSH1 0x4 ADD PUSH2 0xA3F SWAP2 SWAP1 PUSH2 0x1E2C JUMP JUMPDEST PUSH1 0x40 MLOAD DUP1 SWAP2 SUB SWAP1 REVERT JUMPDEST PUSH2 0xA51 DUP2 PUSH2 0xE9F JUMP JUMPDEST POP JUMP JUMPDEST PUSH0 PUSH32 0x80AC58CD00000000000000000000000000000000000000000000000000000000 PUSH28 0xFFFFFFFFFFFFFFFFFFFFFFFFFFFFFFFFFFFFFFFFFFFFFFFFFFFFFFFF NOT AND DUP3 PUSH28 0xFFFFFFFFFFFFFFFFFFFFFFFFFFFFFFFFFFFFFFFFFFFFFFFFFFFFFFFF NOT AND EQ DUP1 PUSH2 0xB1E JUMPI POP PUSH32 0x5B5E139F00000000000000000000000000000000000000000000000000000000 PUSH28 0xFFFFFFFFFFFFFFFFFFFFFFFFFFFFFFFFFFFFFFFFFFFFFFFFFFFFFFFF NOT AND DUP3 PUSH28 0xFFFFFFFFFFFFFFFFFFFFFFFFFFFFFFFFFFFFFFFFFFFFFFFFFFFFFFFF NOT AND EQ JUMPDEST DUP1 PUSH2 0xB2E JUMPI POP PUSH2 0xB2D DUP3 PUSH2 0x1397 JUMP JUMPDEST JUMPDEST SWAP1 POP SWAP2 SWAP1 POP JUMP JUMPDEST PUSH0 DUP1 PUSH2 0xB40 DUP4 PUSH2 0x1400 JUMP JUMPDEST SWAP1 POP PUSH0 PUSH20 0xFFFFFFFFFFFFFFFFFFFFFFFFFFFFFFFFFFFFFFFF AND DUP2 PUSH20 0xFFFFFFFFFFFFFFFFFFFFFFFFFFFFFFFFFFFFFFFF AND SUB PUSH2 0xBB2 JUMPI DUP3 PUSH1 0x40 MLOAD PUSH32 0x7E27328900000000000000000000000000000000000000000000000000000000 DUP2 MSTORE PUSH1 0x4 ADD PUSH2 0xBA9 SWAP2 SWAP1 PUSH2 0x1F37 JUMP JUMPDEST PUSH1 0x40 MLOAD DUP1 SWAP2 SUB SWAP1 REVERT JUMPDEST DUP1 SWAP2 POP POP SWAP2 SWAP1 POP JUMP JUMPDEST PUSH0 PUSH1 0x4 PUSH0 DUP4 DUP2 MSTORE PUSH1 0x20 ADD SWAP1 DUP2 MSTORE PUSH1 0x20 ADD PUSH0 KECCAK256 PUSH0 SWAP1 SLOAD SWAP1 PUSH2 0x100 EXP SWAP1 DIV PUSH20 0xFFFFFFFFFFFFFFFFFFFFFFFFFFFFFFFFFFFFFFFF AND SWAP1 POP SWAP2 SWAP1 POP JUMP JUMPDEST PUSH0 CALLER SWAP1 POP SWAP1 JUMP JUMPDEST PUSH2 0xC08 DUP4 DUP4 DUP4 PUSH1 0x1 PUSH2 0x1439 JUMP JUMPDEST POP POP POP JUMP JUMPDEST PUSH0 DUP1 PUSH2 0xC18 DUP5 PUSH2 0x1400 JUMP JUMPDEST SWAP1 POP PUSH0 PUSH20 0xFFFFFFFFFFFFFFFFFFFFFFFFFFFFFFFFFFFFFFFF AND DUP4 PUSH20 0xFFFFFFFFFFFFFFFFFFFFFFFFFFFFFFFFFFFFFFFF AND EQ PUSH2 0xC59 JUMPI PUSH2 0xC58 DUP2 DUP5 DUP7 PUSH2 0x15F8 JUMP JUMPDEST JUMPDEST PUSH0 PUSH20 0xFFFFFFFFFFFFFFFFFFFFFFFFFFFFFFFFFFFFFFFF AND DUP2 PUSH20 0xFFFFFFFFFFFFFFFFFFFFFFFFFFFFFFFFFFFFFFFF AND EQ PUSH2 0xCE4 JUMPI PUSH2 0xC98 PUSH0 DUP6 PUSH0 DUP1 PUSH2 0x1439 JUMP JUMPDEST PUSH1 0x1 PUSH1 0x3 PUSH0 DUP4 PUSH20 0xFFFFFFFFFFFFFFFFFFFFFFFFFFFFFFFFFFFFFFFF AND PUSH20 0xFFFFFFFFFFFFFFFFFFFFFFFFFFFFFFFFFFFFFFFF AND DUP2 MSTORE PUSH1 0x20 ADD SWAP1 DUP2 MSTORE PUSH1 0x20 ADD PUSH0 KECCAK256 PUSH0 DUP3 DUP3 SLOAD SUB SWAP3 POP POP DUP2 SWAP1 SSTORE POP JUMPDEST PUSH0 PUSH20 0xFFFFFFFFFFFFFFFFFFFFFFFFFFFFFFFFFFFFFFFF AND DUP6 PUSH20 0xFFFFFFFFFFFFFFFFFFFFFFFFFFFFFFFFFFFFFFFF AND EQ PUSH2 0xD63 JUMPI PUSH1 0x1 PUSH1 0x3 PUSH0 DUP8 PUSH20 0xFFFFFFFFFFFFFFFFFFFFFFFFFFFFFFFFFFFFFFFF AND PUSH20 0xFFFFFFFFFFFFFFFFFFFFFFFFFFFFFFFFFFFFFFFF AND DUP2 MSTORE PUSH1 0x20 ADD SWAP1 DUP2 MSTORE PUSH1 0x20 ADD PUSH0 KECCAK256 PUSH0 DUP3 DUP3 SLOAD ADD SWAP3 POP POP DUP2 SWAP1 SSTORE POP JUMPDEST DUP5 PUSH1 0x2 PUSH0 DUP7 DUP2 MSTORE PUSH1 0x20 ADD SWAP1 DUP2 MSTORE PUSH1 0x20 ADD PUSH0 KECCAK256 PUSH0 PUSH2 0x100 EXP DUP2 SLOAD DUP2 PUSH20 0xFFFFFFFFFFFFFFFFFFFFFFFFFFFFFFFFFFFFFFFF MUL NOT AND SWAP1 DUP4 PUSH20 0xFFFFFFFFFFFFFFFFFFFFFFFFFFFFFFFFFFFFFFFF AND MUL OR SWAP1 SSTORE POP DUP4 DUP6 PUSH20 0xFFFFFFFFFFFFFFFFFFFFFFFFFFFFFFFFFFFFFFFF AND DUP3 PUSH20 0xFFFFFFFFFFFFFFFFFFFFFFFFFFFFFFFFFFFFFFFF AND PUSH32 0xDDF252AD1BE2C89B69C2B068FC378DAA952BA7F163C4A11628F55A4DF523B3EF PUSH1 0x40 MLOAD PUSH1 0x40 MLOAD DUP1 SWAP2 SUB SWAP1 LOG4 DUP1 SWAP2 POP POP SWAP4 SWAP3 POP POP POP JUMP JUMPDEST PUSH2 0xE20 PUSH2 0xBF4 JUMP JUMPDEST PUSH20 0xFFFFFFFFFFFFFFFFFFFFFFFFFFFFFFFFFFFFFFFF AND PUSH2 0xE3E PUSH2 0x6AA JUMP JUMPDEST PUSH20 0xFFFFFFFFFFFFFFFFFFFFFFFFFFFFFFFFFFFFFFFF AND EQ PUSH2 0xE9D JUMPI PUSH2 0xE61 PUSH2 0xBF4 JUMP JUMPDEST PUSH1 0x40 MLOAD PUSH32 0x118CDAA700000000000000000000000000000000000000000000000000000000 DUP2 MSTORE PUSH1 0x4 ADD PUSH2 0xE94 SWAP2 SWAP1 PUSH2 0x1E2C JUMP JUMPDEST PUSH1 0x40 MLOAD DUP1 SWAP2 SUB SWAP1 REVERT JUMPDEST JUMP JUMPDEST PUSH0 PUSH1 0x7 PUSH0 SWAP1 SLOAD SWAP1 PUSH2 0x100 EXP SWAP1 DIV PUSH20 0xFFFFFFFFFFFFFFFFFFFFFFFFFFFFFFFFFFFFFFFF AND SWAP1 POP DUP2 PUSH1 0x7 PUSH0 PUSH2 0x100 EXP DUP2 SLOAD DUP2 PUSH20 0xFFFFFFFFFFFFFFFFFFFFFFFFFFFFFFFFFFFFFFFF MUL NOT AND SWAP1 DUP4 PUSH20 0xFFFFFFFFFFFFFFFFFFFFFFFFFFFFFFFFFFFFFFFF AND MUL OR SWAP1 SSTORE POP DUP2 PUSH20 0xFFFFFFFFFFFFFFFFFFFFFFFFFFFFFFFFFFFFFFFF AND DUP2 PUSH20 0xFFFFFFFFFFFFFFFFFFFFFFFFFFFFFFFFFFFFFFFF AND PUSH32 0x8BE0079C531659141344CD1FD0A4F28419497F9722A3DAAFE3B4186F6B6457E0 PUSH1 0x40 MLOAD PUSH1 0x40 MLOAD DUP1 SWAP2 SUB SWAP1 LOG3 POP POP JUMP JUMPDEST PUSH0 PUSH20 0xFFFFFFFFFFFFFFFFFFFFFFFFFFFFFFFFFFFFFFFF AND DUP3 PUSH20 0xFFFFFFFFFFFFFFFFFFFFFFFFFFFFFFFFFFFFFFFF AND SUB PUSH2 0xFD2 JUMPI DUP2 PUSH1 0x40 MLOAD PUSH32 0x5B08BA1800000000000000000000000000000000000000000000000000000000 DUP2 MSTORE PUSH1 0x4 ADD PUSH2 0xFC9 SWAP2 SWAP1 PUSH2 0x1E2C JUMP JUMPDEST PUSH1 0x40 MLOAD DUP1 SWAP2 SUB SWAP1 REVERT JUMPDEST DUP1 PUSH1 0x5 PUSH0 DUP6 PUSH20 0xFFFFFFFFFFFFFFFFFFFFFFFFFFFFFFFFFFFFFFFF AND PUSH20 0xFFFFFFFFFFFFFFFFFFFFFFFFFFFFFFFFFFFFFFFF AND DUP2 MSTORE PUSH1 0x20 ADD SWAP1 DUP2 MSTORE PUSH1 0x20 ADD PUSH0 KECCAK256 PUSH0 DUP5 PUSH20 0xFFFFFFFFFFFFFFFFFFFFFFFFFFFFFFFFFFFFFFFF AND PUSH20 0xFFFFFFFFFFFFFFFFFFFFFFFFFFFFFFFFFFFFFFFF AND DUP2 MSTORE PUSH1 0x20 ADD SWAP1 DUP2 MSTORE PUSH1 0x20 ADD PUSH0 KECCAK256 PUSH0 PUSH2 0x100 EXP DUP2 SLOAD DUP2 PUSH1 0xFF MUL NOT AND SWAP1 DUP4 ISZERO ISZERO MUL OR SWAP1 SSTORE POP DUP2 PUSH20 0xFFFFFFFFFFFFFFFFFFFFFFFFFFFFFFFFFFFFFFFF AND DUP4 PUSH20 0xFFFFFFFFFFFFFFFFFFFFFFFFFFFFFFFFFFFFFFFF AND PUSH32 0x17307EAB39AB6107E8899845AD3D59BD9653F200F220920489CA2B5937696C31 DUP4 PUSH1 0x40 MLOAD PUSH2 0x10BE SWAP2 SWAP1 PUSH2 0x1CE6 JUMP JUMPDEST PUSH1 0x40 MLOAD DUP1 SWAP2 SUB SWAP1 LOG3 POP POP POP JUMP JUMPDEST PUSH0 DUP4 PUSH20 0xFFFFFFFFFFFFFFFFFFFFFFFFFFFFFFFFFFFFFFFF AND EXTCODESIZE GT ISZERO PUSH2 0x1270 JUMPI DUP3 PUSH20 0xFFFFFFFFFFFFFFFFFFFFFFFFFFFFFFFFFFFFFFFF AND PUSH4 0x150B7A02 DUP7 DUP7 DUP6 DUP6 PUSH1 0x40 MLOAD DUP6 PUSH4 0xFFFFFFFF AND PUSH1 0xE0 SHL DUP2 MSTORE PUSH1 0x4 ADD PUSH2 0x1129 SWAP5 SWAP4 SWAP3 SWAP2 SWAP1 PUSH2 0x2670 JUMP JUMPDEST PUSH1 0x20 PUSH1 0x40 MLOAD DUP1 DUP4 SUB DUP2 PUSH0 DUP8 GAS CALL SWAP3 POP POP POP DUP1 ISZERO PUSH2 0x1164 JUMPI POP PUSH1 0x40 MLOAD RETURNDATASIZE PUSH1 0x1F NOT PUSH1 0x1F DUP3 ADD AND DUP3 ADD DUP1 PUSH1 0x40 MSTORE POP DUP2 ADD SWAP1 PUSH2 0x1161 SWAP2 SWAP1 PUSH2 0x26CE JUMP JUMPDEST PUSH1 0x1 JUMPDEST PUSH2 0x11E5 JUMPI RETURNDATASIZE DUP1 PUSH0 DUP2 EQ PUSH2 0x1192 JUMPI PUSH1 0x40 MLOAD SWAP2 POP PUSH1 0x1F NOT PUSH1 0x3F RETURNDATASIZE ADD AND DUP3 ADD PUSH1 0x40 MSTORE RETURNDATASIZE DUP3 MSTORE RETURNDATASIZE PUSH0 PUSH1 0x20 DUP5 ADD RETURNDATACOPY PUSH2 0x1197 JUMP JUMPDEST PUSH1 0x60 SWAP2 POP JUMPDEST POP PUSH0 DUP2 MLOAD SUB PUSH2 0x11DD JUMPI DUP4 PUSH1 0x40 MLOAD PUSH32 0x64A0AE9200000000000000000000000000000000000000000000000000000000 DUP2 MSTORE PUSH1 0x4 ADD PUSH2 0x11D4 SWAP2 SWAP1 PUSH2 0x1E2C JUMP JUMPDEST PUSH1 0x40 MLOAD DUP1 SWAP2 SUB SWAP1 REVERT JUMPDEST DUP1 MLOAD DUP2 PUSH1 0x20 ADD REVERT JUMPDEST PUSH4 0x150B7A02 PUSH1 0xE0 SHL PUSH28 0xFFFFFFFFFFFFFFFFFFFFFFFFFFFFFFFFFFFFFFFFFFFFFFFFFFFFFFFF NOT AND DUP2 PUSH28 0xFFFFFFFFFFFFFFFFFFFFFFFFFFFFFFFFFFFFFFFFFFFFFFFFFFFFFFFF NOT AND EQ PUSH2 0x126E JUMPI DUP4 PUSH1 0x40 MLOAD PUSH32 0x64A0AE9200000000000000000000000000000000000000000000000000000000 DUP2 MSTORE PUSH1 0x4 ADD PUSH2 0x1265 SWAP2 SWAP1 PUSH2 0x1E2C JUMP JUMPDEST PUSH1 0x40 MLOAD DUP1 SWAP2 SUB SWAP1 REVERT JUMPDEST POP JUMPDEST POP POP POP POP POP JUMP JUMPDEST PUSH1 0x60 PUSH1 0x40 MLOAD DUP1 PUSH1 0x20 ADD PUSH1 0x40 MSTORE DUP1 PUSH0 DUP2 MSTORE POP SWAP1 POP SWAP1 JUMP JUMPDEST PUSH1 0x60 PUSH2 0x1298 DUP3 PUSH2 0xB35 JUMP JUMPDEST POP PUSH0 PUSH2 0x12A2 PUSH2 0x1277 JUMP JUMPDEST SWAP1 POP PUSH0 DUP2 MLOAD GT PUSH2 0x12C0 JUMPI PUSH1 0x40 MLOAD DUP1 PUSH1 0x20 ADD PUSH1 0x40 MSTORE DUP1 PUSH0 DUP2 MSTORE POP PUSH2 0x12EB JUMP JUMPDEST DUP1 PUSH2 0x12CA DUP5 PUSH2 0x16BB JUMP JUMPDEST PUSH1 0x40 MLOAD PUSH1 0x20 ADD PUSH2 0x12DB SWAP3 SWAP2 SWAP1 PUSH2 0x2366 JUMP JUMPDEST PUSH1 0x40 MLOAD PUSH1 0x20 DUP2 DUP4 SUB SUB DUP2 MSTORE SWAP1 PUSH1 0x40 MSTORE JUMPDEST SWAP2 POP POP SWAP2 SWAP1 POP JUMP JUMPDEST PUSH2 0x130C DUP3 DUP3 PUSH1 0x40 MLOAD DUP1 PUSH1 0x20 ADD PUSH1 0x40 MSTORE DUP1 PUSH0 DUP2 MSTORE POP PUSH2 0x1785 JUMP JUMPDEST POP POP JUMP JUMPDEST PUSH1 0x60 PUSH2 0x1336 DUP3 PUSH1 0x40 MLOAD DUP1 PUSH1 0x60 ADD PUSH1 0x40 MSTORE DUP1 PUSH1 0x40 DUP2 MSTORE PUSH1 0x20 ADD PUSH2 0x2A5E PUSH1 0x40 SWAP2 CODECOPY PUSH1 0x1 PUSH2 0x17A8 JUMP JUMPDEST SWAP1 POP SWAP2 SWAP1 POP JUMP JUMPDEST DUP1 PUSH1 0x6 PUSH0 DUP5 DUP2 MSTORE PUSH1 0x20 ADD SWAP1 DUP2 MSTORE PUSH1 0x20 ADD PUSH0 KECCAK256 SWAP1 DUP2 PUSH2 0x135B SWAP2 SWAP1 PUSH2 0x2896 JUMP JUMPDEST POP PUSH32 0xF8E1A15ABA9398E019F0B49DF1A4FDE98EE17AE345CB5F6B5E2C27F5033E8CE7 DUP3 PUSH1 0x40 MLOAD PUSH2 0x138B SWAP2 SWAP1 PUSH2 0x1F37 JUMP JUMPDEST PUSH1 0x40 MLOAD DUP1 SWAP2 SUB SWAP1 LOG1 POP POP JUMP JUMPDEST PUSH0 PUSH32 0x1FFC9A700000000000000000000000000000000000000000000000000000000 PUSH28 0xFFFFFFFFFFFFFFFFFFFFFFFFFFFFFFFFFFFFFFFFFFFFFFFFFFFFFFFF NOT AND DUP3 PUSH28 0xFFFFFFFFFFFFFFFFFFFFFFFFFFFFFFFFFFFFFFFFFFFFFFFFFFFFFFFF NOT AND EQ SWAP1 POP SWAP2 SWAP1 POP JUMP JUMPDEST PUSH0 PUSH1 0x2 PUSH0 DUP4 DUP2 MSTORE PUSH1 0x20 ADD SWAP1 DUP2 MSTORE PUSH1 0x20 ADD PUSH0 KECCAK256 PUSH0 SWAP1 SLOAD SWAP1 PUSH2 0x100 EXP SWAP1 DIV PUSH20 0xFFFFFFFFFFFFFFFFFFFFFFFFFFFFFFFFFFFFFFFF AND SWAP1 POP SWAP2 SWAP1 POP JUMP JUMPDEST DUP1 DUP1 PUSH2 0x1471 JUMPI POP PUSH0 PUSH20 0xFFFFFFFFFFFFFFFFFFFFFFFFFFFFFFFFFFFFFFFF AND DUP3 PUSH20 0xFFFFFFFFFFFFFFFFFFFFFFFFFFFFFFFFFFFFFFFF AND EQ ISZERO JUMPDEST ISZERO PUSH2 0x15A3 JUMPI PUSH0 PUSH2 0x1480 DUP5 PUSH2 0xB35 JUMP JUMPDEST SWAP1 POP PUSH0 PUSH20 0xFFFFFFFFFFFFFFFFFFFFFFFFFFFFFFFFFFFFFFFF AND DUP4 PUSH20 0xFFFFFFFFFFFFFFFFFFFFFFFFFFFFFFFFFFFFFFFF AND EQ ISZERO DUP1 ISZERO PUSH2 0x14EA JUMPI POP DUP3 PUSH20 0xFFFFFFFFFFFFFFFFFFFFFFFFFFFFFFFFFFFFFFFF AND DUP2 PUSH20 0xFFFFFFFFFFFFFFFFFFFFFFFFFFFFFFFFFFFFFFFF AND EQ ISZERO JUMPDEST DUP1 ISZERO PUSH2 0x14FD JUMPI POP PUSH2 0x14FB DUP2 DUP5 PUSH2 0x8AE JUMP JUMPDEST ISZERO JUMPDEST ISZERO PUSH2 0x153F JUMPI DUP3 PUSH1 0x40 MLOAD PUSH32 0xA9FBF51F00000000000000000000000000000000000000000000000000000000 DUP2 MSTORE PUSH1 0x4 ADD PUSH2 0x1536 SWAP2 SWAP1 PUSH2 0x1E2C JUMP JUMPDEST PUSH1 0x40 MLOAD DUP1 SWAP2 SUB SWAP1 REVERT JUMPDEST DUP2 ISZERO PUSH2 0x15A1 JUMPI DUP4 DUP6 PUSH20 0xFFFFFFFFFFFFFFFFFFFFFFFFFFFFFFFFFFFFFFFF AND DUP3 PUSH20 0xFFFFFFFFFFFFFFFFFFFFFFFFFFFFFFFFFFFFFFFF AND PUSH32 0x8C5BE1E5EBEC7D5BD14F71427D1E84F3DD0314C0F7B2291E5B200AC8C7C3B925 PUSH1 0x40 MLOAD PUSH1 0x40 MLOAD DUP1 SWAP2 SUB SWAP1 LOG4 JUMPDEST POP JUMPDEST DUP4 PUSH1 0x4 PUSH0 DUP6 DUP2 MSTORE PUSH1 0x20 ADD SWAP1 DUP2 MSTORE PUSH1 0x20 ADD PUSH0 KECCAK256 PUSH0 PUSH2 0x100 EXP DUP2 SLOAD DUP2 PUSH20 0xFFFFFFFFFFFFFFFFFFFFFFFFFFFFFFFFFFFFFFFF MUL NOT AND SWAP1 DUP4 PUSH20 0xFFFFFFFFFFFFFFFFFFFFFFFFFFFFFFFFFFFFFFFF AND MUL OR SWAP1 SSTORE POP POP POP POP POP JUMP JUMPDEST PUSH2 0x1603 DUP4 DUP4 DUP4 PUSH2 0x1937 JUMP JUMPDEST PUSH2 0x16B6 JUMPI PUSH0 PUSH20 0xFFFFFFFFFFFFFFFFFFFFFFFFFFFFFFFFFFFFFFFF AND DUP4 PUSH20 0xFFFFFFFFFFFFFFFFFFFFFFFFFFFFFFFFFFFFFFFF AND SUB PUSH2 0x1677 JUMPI DUP1 PUSH1 0x40 MLOAD PUSH32 0x7E27328900000000000000000000000000000000000000000000000000000000 DUP2 MSTORE PUSH1 0x4 ADD PUSH2 0x166E SWAP2 SWAP1 PUSH2 0x1F37 JUMP JUMPDEST PUSH1 0x40 MLOAD DUP1 SWAP2 SUB SWAP1 REVERT JUMPDEST DUP2 DUP2 PUSH1 0x40 MLOAD PUSH32 0x177E802F00000000000000000000000000000000000000000000000000000000 DUP2 MSTORE PUSH1 0x4 ADD PUSH2 0x16AD SWAP3 SWAP2 SWAP1 PUSH2 0x2965 JUMP JUMPDEST PUSH1 0x40 MLOAD DUP1 SWAP2 SUB SWAP1 REVERT JUMPDEST POP POP POP JUMP JUMPDEST PUSH1 0x60 PUSH0 PUSH1 0x1 PUSH2 0x16C9 DUP5 PUSH2 0x19F7 JUMP JUMPDEST ADD SWAP1 POP PUSH0 DUP2 PUSH8 0xFFFFFFFFFFFFFFFF DUP2 GT ISZERO PUSH2 0x16E7 JUMPI PUSH2 0x16E6 PUSH2 0x1FC0 JUMP JUMPDEST JUMPDEST PUSH1 0x40 MLOAD SWAP1 DUP1 DUP3 MSTORE DUP1 PUSH1 0x1F ADD PUSH1 0x1F NOT AND PUSH1 0x20 ADD DUP3 ADD PUSH1 0x40 MSTORE DUP1 ISZERO PUSH2 0x1719 JUMPI DUP2 PUSH1 0x20 ADD PUSH1 0x1 DUP3 MUL DUP1 CALLDATASIZE DUP4 CALLDATACOPY DUP1 DUP3 ADD SWAP2 POP POP SWAP1 POP JUMPDEST POP SWAP1 POP PUSH0 DUP3 PUSH1 0x20 ADD DUP3 ADD SWAP1 POP JUMPDEST PUSH1 0x1 ISZERO PUSH2 0x177A JUMPI DUP1 DUP1 PUSH1 0x1 SWAP1 SUB SWAP2 POP POP PUSH32 0x3031323334353637383961626364656600000000000000000000000000000000 PUSH1 0xA DUP7 MOD BYTE DUP2 MSTORE8 PUSH1 0xA DUP6 DUP2 PUSH2 0x176F JUMPI PUSH2 0x176E PUSH2 0x298C JUMP JUMPDEST JUMPDEST DIV SWAP5 POP PUSH0 DUP6 SUB PUSH2 0x1726 JUMPI JUMPDEST DUP2 SWAP4 POP POP POP POP SWAP2 SWAP1 POP JUMP JUMPDEST PUSH2 0x178F DUP4 DUP4 PUSH2 0x1B48 JUMP JUMPDEST PUSH2 0x17A3 PUSH2 0x179A PUSH2 0xBF4 JUMP JUMPDEST PUSH0 DUP6 DUP6 DUP6 PUSH2 0x10CB JUMP JUMPDEST POP POP POP JUMP JUMPDEST PUSH1 0x60 PUSH0 DUP5 MLOAD SUB PUSH2 0x17C8 JUMPI PUSH1 0x40 MLOAD DUP1 PUSH1 0x20 ADD PUSH1 0x40 MSTORE DUP1 PUSH0 DUP2 MSTORE POP SWAP1 POP PUSH2 0x1930 JUMP JUMPDEST PUSH0 DUP3 PUSH2 0x17F9 JUMPI PUSH1 0x3 PUSH1 0x2 DUP7 MLOAD PUSH1 0x4 PUSH2 0x17E0 SWAP2 SWAP1 PUSH2 0x29B9 JUMP JUMPDEST PUSH2 0x17EA SWAP2 SWAP1 PUSH2 0x29FA JUMP JUMPDEST PUSH2 0x17F4 SWAP2 SWAP1 PUSH2 0x2A2D JUMP JUMPDEST PUSH2 0x1820 JUMP JUMPDEST PUSH1 0x3 PUSH1 0x2 DUP7 MLOAD PUSH2 0x1809 SWAP2 SWAP1 PUSH2 0x29FA JUMP JUMPDEST PUSH2 0x1813 SWAP2 SWAP1 PUSH2 0x2A2D JUMP JUMPDEST PUSH1 0x4 PUSH2 0x181F SWAP2 SWAP1 PUSH2 0x29B9 JUMP JUMPDEST JUMPDEST SWAP1 POP PUSH0 DUP2 PUSH8 0xFFFFFFFFFFFFFFFF DUP2 GT ISZERO PUSH2 0x183D JUMPI PUSH2 0x183C PUSH2 0x1FC0 JUMP JUMPDEST JUMPDEST PUSH1 0x40 MLOAD SWAP1 DUP1 DUP3 MSTORE DUP1 PUSH1 0x1F ADD PUSH1 0x1F NOT AND PUSH1 0x20 ADD DUP3 ADD PUSH1 0x40 MSTORE DUP1 ISZERO PUSH2 0x186F JUMPI DUP2 PUSH1 0x20 ADD PUSH1 0x1 DUP3 MUL DUP1 CALLDATASIZE DUP4 CALLDATACOPY DUP1 DUP3 ADD SWAP2 POP POP SWAP1 POP JUMPDEST POP SWAP1 POP PUSH1 0x1 DUP6 ADD PUSH1 0x20 DUP3 ADD DUP8 DUP9 MLOAD DUP10 ADD PUSH1 0x20 DUP2 ADD DUP1 MLOAD PUSH0 DUP3 MSTORE JUMPDEST DUP3 DUP5 LT ISZERO PUSH2 0x18E4 JUMPI PUSH1 0x3 DUP5 ADD SWAP4 POP DUP4 MLOAD PUSH1 0x3F DUP2 PUSH1 0x12 SHR AND DUP8 ADD MLOAD DUP7 MSTORE8 PUSH1 0x1 DUP7 ADD SWAP6 POP PUSH1 0x3F DUP2 PUSH1 0xC SHR AND DUP8 ADD MLOAD DUP7 MSTORE8 PUSH1 0x1 DUP7 ADD SWAP6 POP PUSH1 0x3F DUP2 PUSH1 0x6 SHR AND DUP8 ADD MLOAD DUP7 MSTORE8 PUSH1 0x1 DUP7 ADD SWAP6 POP PUSH1 0x3F DUP2 AND DUP8 ADD MLOAD DUP7 MSTORE8 PUSH1 0x1 DUP7 ADD SWAP6 POP POP PUSH2 0x1889 JUMP JUMPDEST DUP1 DUP3 MSTORE DUP10 ISZERO PUSH2 0x1924 JUMPI PUSH1 0x3 DUP13 MLOAD MOD PUSH1 0x1 DUP2 EQ PUSH2 0x1907 JUMPI PUSH1 0x2 DUP2 EQ PUSH2 0x191A JUMPI PUSH2 0x1922 JUMP JUMPDEST PUSH1 0x3D PUSH1 0x1 DUP8 SUB MSTORE8 PUSH1 0x3D PUSH1 0x2 DUP8 SUB MSTORE8 PUSH2 0x1922 JUMP JUMPDEST PUSH1 0x3D PUSH1 0x1 DUP8 SUB MSTORE8 JUMPDEST POP JUMPDEST POP POP POP POP POP POP DUP1 SWAP3 POP POP POP JUMPDEST SWAP4 SWAP3 POP POP POP JUMP JUMPDEST PUSH0 DUP1 PUSH20 0xFFFFFFFFFFFFFFFFFFFFFFFFFFFFFFFFFFFFFFFF AND DUP4 PUSH20 0xFFFFFFFFFFFFFFFFFFFFFFFFFFFFFFFFFFFFFFFF AND EQ ISZERO DUP1 ISZERO PUSH2 0x19EE JUMPI POP DUP3 PUSH20 0xFFFFFFFFFFFFFFFFFFFFFFFFFFFFFFFFFFFFFFFF AND DUP5 PUSH20 0xFFFFFFFFFFFFFFFFFFFFFFFFFFFFFFFFFFFFFFFF AND EQ DUP1 PUSH2 0x19AF JUMPI POP PUSH2 0x19AE DUP5 DUP5 PUSH2 0x8AE JUMP JUMPDEST JUMPDEST DUP1 PUSH2 0x19ED JUMPI POP DUP3 PUSH20 0xFFFFFFFFFFFFFFFFFFFFFFFFFFFFFFFFFFFFFFFF AND PUSH2 0x19D5 DUP4 PUSH2 0xBBB JUMP JUMPDEST PUSH20 0xFFFFFFFFFFFFFFFFFFFFFFFFFFFFFFFFFFFFFFFF AND EQ JUMPDEST JUMPDEST SWAP1 POP SWAP4 SWAP3 POP POP POP JUMP JUMPDEST PUSH0 DUP1 PUSH0 SWAP1 POP PUSH27 0x184F03E93FF9F4DAA797ED6E38ED64BF6A1F010000000000000000 DUP4 LT PUSH2 0x1A53 JUMPI PUSH27 0x184F03E93FF9F4DAA797ED6E38ED64BF6A1F010000000000000000 DUP4 DUP2 PUSH2 0x1A49 JUMPI PUSH2 0x1A48 PUSH2 0x298C JUMP JUMPDEST JUMPDEST DIV SWAP3 POP PUSH1 0x40 DUP2 ADD SWAP1 POP JUMPDEST PUSH14 0x4EE2D6D415B85ACEF8100000000 DUP4 LT PUSH2 0x1A90 JUMPI PUSH14 0x4EE2D6D415B85ACEF8100000000 DUP4 DUP2 PUSH2 0x1A86 JUMPI PUSH2 0x1A85 PUSH2 0x298C JUMP JUMPDEST JUMPDEST DIV SWAP3 POP PUSH1 0x20 DUP2 ADD SWAP1 POP JUMPDEST PUSH7 0x2386F26FC10000 DUP4 LT PUSH2 0x1ABF JUMPI PUSH7 0x2386F26FC10000 DUP4 DUP2 PUSH2 0x1AB5 JUMPI PUSH2 0x1AB4 PUSH2 0x298C JUMP JUMPDEST JUMPDEST DIV SWAP3 POP PUSH1 0x10 DUP2 ADD SWAP1 POP JUMPDEST PUSH4 0x5F5E100 DUP4 LT PUSH2 0x1AE8 JUMPI PUSH4 0x5F5E100 DUP4 DUP2 PUSH2 0x1ADE JUMPI PUSH2 0x1ADD PUSH2 0x298C JUMP JUMPDEST JUMPDEST DIV SWAP3 POP PUSH1 0x8 DUP2 ADD SWAP1 POP JUMPDEST PUSH2 0x2710 DUP4 LT PUSH2 0x1B0D JUMPI PUSH2 0x2710 DUP4 DUP2 PUSH2 0x1B03 JUMPI PUSH2 0x1B02 PUSH2 0x298C JUMP JUMPDEST JUMPDEST DIV SWAP3 POP PUSH1 0x4 DUP2 ADD SWAP1 POP JUMPDEST PUSH1 0x64 DUP4 LT PUSH2 0x1B30 JUMPI PUSH1 0x64 DUP4 DUP2 PUSH2 0x1B26 JUMPI PUSH2 0x1B25 PUSH2 0x298C JUMP JUMPDEST JUMPDEST DIV SWAP3 POP PUSH1 0x2 DUP2 ADD SWAP1 POP JUMPDEST PUSH1 0xA DUP4 LT PUSH2 0x1B3F JUMPI PUSH1 0x1 DUP2 ADD SWAP1 POP JUMPDEST DUP1 SWAP2 POP POP SWAP2 SWAP1 POP JUMP JUMPDEST PUSH0 PUSH20 0xFFFFFFFFFFFFFFFFFFFFFFFFFFFFFFFFFFFFFFFF AND DUP3 PUSH20 0xFFFFFFFFFFFFFFFFFFFFFFFFFFFFFFFFFFFFFFFF AND SUB PUSH2 0x1BB8 JUMPI PUSH0 PUSH1 0x40 MLOAD PUSH32 0x64A0AE9200000000000000000000000000000000000000000000000000000000 DUP2 MSTORE PUSH1 0x4 ADD PUSH2 0x1BAF SWAP2 SWAP1 PUSH2 0x1E2C JUMP JUMPDEST PUSH1 0x40 MLOAD DUP1 SWAP2 SUB SWAP1 REVERT JUMPDEST PUSH0 PUSH2 0x1BC4 DUP4 DUP4 PUSH0 PUSH2 0xC0D JUMP JUMPDEST SWAP1 POP PUSH0 PUSH20 0xFFFFFFFFFFFFFFFFFFFFFFFFFFFFFFFFFFFFFFFF AND DUP2 PUSH20 0xFFFFFFFFFFFFFFFFFFFFFFFFFFFFFFFFFFFFFFFF AND EQ PUSH2 0x1C36 JUMPI PUSH0 PUSH1 0x40 MLOAD PUSH32 0x73C6AC6E00000000000000000000000000000000000000000000000000000000 DUP2 MSTORE PUSH1 0x4 ADD PUSH2 0x1C2D SWAP2 SWAP1 PUSH2 0x1E2C JUMP JUMPDEST PUSH1 0x40 MLOAD DUP1 SWAP2 SUB SWAP1 REVERT JUMPDEST POP POP POP JUMP JUMPDEST PUSH0 PUSH1 0x40 MLOAD SWAP1 POP SWAP1 JUMP JUMPDEST PUSH0 DUP1 REVERT JUMPDEST PUSH0 DUP1 REVERT JUMPDEST PUSH0 PUSH32 0xFFFFFFFF00000000000000000000000000000000000000000000000000000000 DUP3 AND SWAP1 POP SWAP2 SWAP1 POP JUMP JUMPDEST PUSH2 0x1C80 DUP2 PUSH2 0x1C4C JUMP JUMPDEST DUP2 EQ PUSH2 0x1C8A JUMPI PUSH0 DUP1 REVERT JUMPDEST POP JUMP JUMPDEST PUSH0 DUP2 CALLDATALOAD SWAP1 POP PUSH2 0x1C9B DUP2 PUSH2 0x1C77 JUMP JUMPDEST SWAP3 SWAP2 POP POP JUMP JUMPDEST PUSH0 PUSH1 0x20 DUP3 DUP5 SUB SLT ISZERO PUSH2 0x1CB6 JUMPI PUSH2 0x1CB5 PUSH2 0x1C44 JUMP JUMPDEST JUMPDEST PUSH0 PUSH2 0x1CC3 DUP5 DUP3 DUP6 ADD PUSH2 0x1C8D JUMP JUMPDEST SWAP2 POP POP SWAP3 SWAP2 POP POP JUMP JUMPDEST PUSH0 DUP2 ISZERO ISZERO SWAP1 POP SWAP2 SWAP1 POP JUMP JUMPDEST PUSH2 0x1CE0 DUP2 PUSH2 0x1CCC JUMP JUMPDEST DUP3 MSTORE POP POP JUMP JUMPDEST PUSH0 PUSH1 0x20 DUP3 ADD SWAP1 POP PUSH2 0x1CF9 PUSH0 DUP4 ADD DUP5 PUSH2 0x1CD7 JUMP JUMPDEST SWAP3 SWAP2 POP POP JUMP JUMPDEST PUSH0 DUP2 MLOAD SWAP1 POP SWAP2 SWAP1 POP JUMP JUMPDEST PUSH0 DUP3 DUP3 MSTORE PUSH1 0x20 DUP3 ADD SWAP1 POP SWAP3 SWAP2 POP POP JUMP JUMPDEST DUP3 DUP2 DUP4 MCOPY PUSH0 DUP4 DUP4 ADD MSTORE POP POP POP JUMP JUMPDEST PUSH0 PUSH1 0x1F NOT PUSH1 0x1F DUP4 ADD AND SWAP1 POP SWAP2 SWAP1 POP JUMP JUMPDEST PUSH0 PUSH2 0x1D41 DUP3 PUSH2 0x1CFF JUMP JUMPDEST PUSH2 0x1D4B DUP2 DUP6 PUSH2 0x1D09 JUMP JUMPDEST SWAP4 POP PUSH2 0x1D5B DUP2 DUP6 PUSH1 0x20 DUP7 ADD PUSH2 0x1D19 JUMP JUMPDEST PUSH2 0x1D64 DUP2 PUSH2 0x1D27 JUMP JUMPDEST DUP5 ADD SWAP2 POP POP SWAP3 SWAP2 POP POP JUMP JUMPDEST PUSH0 PUSH1 0x20 DUP3 ADD SWAP1 POP DUP2 DUP2 SUB PUSH0 DUP4 ADD MSTORE PUSH2 0x1D87 DUP2 DUP5 PUSH2 0x1D37 JUMP JUMPDEST SWAP1 POP SWAP3 SWAP2 POP POP JUMP JUMPDEST PUSH0 DUP2 SWAP1 POP SWAP2 SWAP1 POP JUMP JUMPDEST PUSH2 0x1DA1 DUP2 PUSH2 0x1D8F JUMP JUMPDEST DUP2 EQ PUSH2 0x1DAB JUMPI PUSH0 DUP1 REVERT JUMPDEST POP JUMP JUMPDEST PUSH0 DUP2 CALLDATALOAD SWAP1 POP PUSH2 0x1DBC DUP2 PUSH2 0x1D98 JUMP JUMPDEST SWAP3 SWAP2 POP POP JUMP JUMPDEST PUSH0 PUSH1 0x20 DUP3 DUP5 SUB SLT ISZERO PUSH2 0x1DD7 JUMPI PUSH2 0x1DD6 PUSH2 0x1C44 JUMP JUMPDEST JUMPDEST PUSH0 PUSH2 0x1DE4 DUP5 DUP3 DUP6 ADD PUSH2 0x1DAE JUMP JUMPDEST SWAP2 POP POP SWAP3 SWAP2 POP POP JUMP JUMPDEST PUSH0 PUSH20 0xFFFFFFFFFFFFFFFFFFFFFFFFFFFFFFFFFFFFFFFF DUP3 AND SWAP1 POP SWAP2 SWAP1 POP JUMP JUMPDEST PUSH0 PUSH2 0x1E16 DUP3 PUSH2 0x1DED JUMP JUMPDEST SWAP1 POP SWAP2 SWAP1 POP JUMP JUMPDEST PUSH2 0x1E26 DUP2 PUSH2 0x1E0C JUMP JUMPDEST DUP3 MSTORE POP POP JUMP JUMPDEST PUSH0 PUSH1 0x20 DUP3 ADD SWAP1 POP PUSH2 0x1E3F PUSH0 DUP4 ADD DUP5 PUSH2 0x1E1D JUMP JUMPDEST SWAP3 SWAP2 POP POP JUMP JUMPDEST PUSH2 0x1E4E DUP2 PUSH2 0x1E0C JUMP JUMPDEST DUP2 EQ PUSH2 0x1E58 JUMPI PUSH0 DUP1 REVERT JUMPDEST POP JUMP JUMPDEST PUSH0 DUP2 CALLDATALOAD SWAP1 POP PUSH2 0x1E69 DUP2 PUSH2 0x1E45 JUMP JUMPDEST SWAP3 SWAP2 POP POP JUMP JUMPDEST PUSH0 DUP1 PUSH1 0x40 DUP4 DUP6 SUB SLT ISZERO PUSH2 0x1E85 JUMPI PUSH2 0x1E84 PUSH2 0x1C44 JUMP JUMPDEST JUMPDEST PUSH0 PUSH2 0x1E92 DUP6 DUP3 DUP7 ADD PUSH2 0x1E5B JUMP JUMPDEST SWAP3 POP POP PUSH1 0x20 PUSH2 0x1EA3 DUP6 DUP3 DUP7 ADD PUSH2 0x1DAE JUMP JUMPDEST SWAP2 POP POP SWAP3 POP SWAP3 SWAP1 POP JUMP JUMPDEST PUSH0 DUP1 PUSH0 PUSH1 0x60 DUP5 DUP7 SUB SLT ISZERO PUSH2 0x1EC4 JUMPI PUSH2 0x1EC3 PUSH2 0x1C44 JUMP JUMPDEST JUMPDEST PUSH0 PUSH2 0x1ED1 DUP7 DUP3 DUP8 ADD PUSH2 0x1E5B JUMP JUMPDEST SWAP4 POP POP PUSH1 0x20 PUSH2 0x1EE2 DUP7 DUP3 DUP8 ADD PUSH2 0x1E5B JUMP JUMPDEST SWAP3 POP POP PUSH1 0x40 PUSH2 0x1EF3 DUP7 DUP3 DUP8 ADD PUSH2 0x1DAE JUMP JUMPDEST SWAP2 POP POP SWAP3 POP SWAP3 POP SWAP3 JUMP JUMPDEST PUSH0 PUSH1 0x20 DUP3 DUP5 SUB SLT ISZERO PUSH2 0x1F12 JUMPI PUSH2 0x1F11 PUSH2 0x1C44 JUMP JUMPDEST JUMPDEST PUSH0 PUSH2 0x1F1F DUP5 DUP3 DUP6 ADD PUSH2 0x1E5B JUMP JUMPDEST SWAP2 POP POP SWAP3 SWAP2 POP POP JUMP JUMPDEST PUSH2 0x1F31 DUP2 PUSH2 0x1D8F JUMP JUMPDEST DUP3 MSTORE POP POP JUMP JUMPDEST PUSH0 PUSH1 0x20 DUP3 ADD SWAP1 POP PUSH2 0x1F4A PUSH0 DUP4 ADD DUP5 PUSH2 0x1F28 JUMP JUMPDEST SWAP3 SWAP2 POP POP JUMP JUMPDEST PUSH2 0x1F59 DUP2 PUSH2 0x1CCC JUMP JUMPDEST DUP2 EQ PUSH2 0x1F63 JUMPI PUSH0 DUP1 REVERT JUMPDEST POP JUMP JUMPDEST PUSH0 DUP2 CALLDATALOAD SWAP1 POP PUSH2 0x1F74 DUP2 PUSH2 0x1F50 JUMP JUMPDEST SWAP3 SWAP2 POP POP JUMP JUMPDEST PUSH0 DUP1 PUSH1 0x40 DUP4 DUP6 SUB SLT ISZERO PUSH2 0x1F90 JUMPI PUSH2 0x1F8F PUSH2 0x1C44 JUMP JUMPDEST JUMPDEST PUSH0 PUSH2 0x1F9D DUP6 DUP3 DUP7 ADD PUSH2 0x1E5B JUMP JUMPDEST SWAP3 POP POP PUSH1 0x20 PUSH2 0x1FAE DUP6 DUP3 DUP7 ADD PUSH2 0x1F66 JUMP JUMPDEST SWAP2 POP POP SWAP3 POP SWAP3 SWAP1 POP JUMP JUMPDEST PUSH0 DUP1 REVERT JUMPDEST PUSH0 DUP1 REVERT JUMPDEST PUSH32 0x4E487B7100000000000000000000000000000000000000000000000000000000 PUSH0 MSTORE PUSH1 0x41 PUSH1 0x4 MSTORE PUSH1 0x24 PUSH0 REVERT JUMPDEST PUSH2 0x1FF6 DUP3 PUSH2 0x1D27 JUMP JUMPDEST DUP2 ADD DUP2 DUP2 LT PUSH8 0xFFFFFFFFFFFFFFFF DUP3 GT OR ISZERO PUSH2 0x2015 JUMPI PUSH2 0x2014 PUSH2 0x1FC0 JUMP JUMPDEST JUMPDEST DUP1 PUSH1 0x40 MSTORE POP POP POP JUMP JUMPDEST PUSH0 PUSH2 0x2027 PUSH2 0x1C3B JUMP JUMPDEST SWAP1 POP PUSH2 0x2033 DUP3 DUP3 PUSH2 0x1FED JUMP JUMPDEST SWAP2 SWAP1 POP JUMP JUMPDEST PUSH0 PUSH8 0xFFFFFFFFFFFFFFFF DUP3 GT ISZERO PUSH2 0x2052 JUMPI PUSH2 0x2051 PUSH2 0x1FC0 JUMP JUMPDEST JUMPDEST PUSH2 0x205B DUP3 PUSH2 0x1D27 JUMP JUMPDEST SWAP1 POP PUSH1 0x20 DUP2 ADD SWAP1 POP SWAP2 SWAP1 POP JUMP JUMPDEST DUP3 DUP2 DUP4 CALLDATACOPY PUSH0 DUP4 DUP4 ADD MSTORE POP POP POP JUMP JUMPDEST PUSH0 PUSH2 0x2088 PUSH2 0x2083 DUP5 PUSH2 0x2038 JUMP JUMPDEST PUSH2 0x201E JUMP JUMPDEST SWAP1 POP DUP3 DUP2 MSTORE PUSH1 0x20 DUP2 ADD DUP5 DUP5 DUP5 ADD GT ISZERO PUSH2 0x20A4 JUMPI PUSH2 0x20A3 PUSH2 0x1FBC JUMP JUMPDEST JUMPDEST PUSH2 0x20AF DUP5 DUP3 DUP6 PUSH2 0x2068 JUMP JUMPDEST POP SWAP4 SWAP3 POP POP POP JUMP JUMPDEST PUSH0 DUP3 PUSH1 0x1F DUP4 ADD SLT PUSH2 0x20CB JUMPI PUSH2 0x20CA PUSH2 0x1FB8 JUMP JUMPDEST JUMPDEST DUP2 CALLDATALOAD PUSH2 0x20DB DUP5 DUP3 PUSH1 0x20 DUP7 ADD PUSH2 0x2076 JUMP JUMPDEST SWAP2 POP POP SWAP3 SWAP2 POP POP JUMP JUMPDEST PUSH0 DUP1 PUSH0 DUP1 PUSH1 0x80 DUP6 DUP8 SUB SLT ISZERO PUSH2 0x20FC JUMPI PUSH2 0x20FB PUSH2 0x1C44 JUMP JUMPDEST JUMPDEST PUSH0 PUSH2 0x2109 DUP8 DUP3 DUP9 ADD PUSH2 0x1E5B JUMP JUMPDEST SWAP5 POP POP PUSH1 0x20 PUSH2 0x211A DUP8 DUP3 DUP9 ADD PUSH2 0x1E5B JUMP JUMPDEST SWAP4 POP POP PUSH1 0x40 PUSH2 0x212B DUP8 DUP3 DUP9 ADD PUSH2 0x1DAE JUMP JUMPDEST SWAP3 POP POP PUSH1 0x60 DUP6 ADD CALLDATALOAD PUSH8 0xFFFFFFFFFFFFFFFF DUP2 GT ISZERO PUSH2 0x214C JUMPI PUSH2 0x214B PUSH2 0x1C48 JUMP JUMPDEST JUMPDEST PUSH2 0x2158 DUP8 DUP3 DUP9 ADD PUSH2 0x20B7 JUMP JUMPDEST SWAP2 POP POP SWAP3 SWAP6 SWAP2 SWAP5 POP SWAP3 POP JUMP JUMPDEST PUSH0 DUP1 PUSH1 0x40 DUP4 DUP6 SUB SLT ISZERO PUSH2 0x217A JUMPI PUSH2 0x2179 PUSH2 0x1C44 JUMP JUMPDEST JUMPDEST PUSH0 PUSH2 0x2187 DUP6 DUP3 DUP7 ADD PUSH2 0x1E5B JUMP JUMPDEST SWAP3 POP POP PUSH1 0x20 PUSH2 0x2198 DUP6 DUP3 DUP7 ADD PUSH2 0x1E5B JUMP JUMPDEST SWAP2 POP POP SWAP3 POP SWAP3 SWAP1 POP JUMP JUMPDEST PUSH0 PUSH8 0xFFFFFFFFFFFFFFFF DUP3 GT ISZERO PUSH2 0x21BC JUMPI PUSH2 0x21BB PUSH2 0x1FC0 JUMP JUMPDEST JUMPDEST PUSH2 0x21C5 DUP3 PUSH2 0x1D27 JUMP JUMPDEST SWAP1 POP PUSH1 0x20 DUP2 ADD SWAP1 POP SWAP2 SWAP1 POP JUMP JUMPDEST PUSH0 PUSH2 0x21E4 PUSH2 0x21DF DUP5 PUSH2 0x21A2 JUMP JUMPDEST PUSH2 0x201E JUMP JUMPDEST SWAP1 POP DUP3 DUP2 MSTORE PUSH1 0x20 DUP2 ADD DUP5 DUP5 DUP5 ADD GT ISZERO PUSH2 0x2200 JUMPI PUSH2 0x21FF PUSH2 0x1FBC JUMP JUMPDEST JUMPDEST PUSH2 0x220B DUP5 DUP3 DUP6 PUSH2 0x2068 JUMP JUMPDEST POP SWAP4 SWAP3 POP POP POP JUMP JUMPDEST PUSH0 DUP3 PUSH1 0x1F DUP4 ADD SLT PUSH2 0x2227 JUMPI PUSH2 0x2226 PUSH2 0x1FB8 JUMP JUMPDEST JUMPDEST DUP2 CALLDATALOAD PUSH2 0x2237 DUP5 DUP3 PUSH1 0x20 DUP7 ADD PUSH2 0x21D2 JUMP JUMPDEST SWAP2 POP POP SWAP3 SWAP2 POP POP JUMP JUMPDEST PUSH0 DUP1 PUSH1 0x40 DUP4 DUP6 SUB SLT ISZERO PUSH2 0x2256 JUMPI PUSH2 0x2255 PUSH2 0x1C44 JUMP JUMPDEST JUMPDEST PUSH0 PUSH2 0x2263 DUP6 DUP3 DUP7 ADD PUSH2 0x1E5B JUMP JUMPDEST SWAP3 POP POP PUSH1 0x20 DUP4 ADD CALLDATALOAD PUSH8 0xFFFFFFFFFFFFFFFF DUP2 GT ISZERO PUSH2 0x2284 JUMPI PUSH2 0x2283 PUSH2 0x1C48 JUMP JUMPDEST JUMPDEST PUSH2 0x2290 DUP6 DUP3 DUP7 ADD PUSH2 0x2213 JUMP JUMPDEST SWAP2 POP POP SWAP3 POP SWAP3 SWAP1 POP JUMP JUMPDEST PUSH32 0x4E487B7100000000000000000000000000000000000000000000000000000000 PUSH0 MSTORE PUSH1 0x22 PUSH1 0x4 MSTORE PUSH1 0x24 PUSH0 REVERT JUMPDEST PUSH0 PUSH1 0x2 DUP3 DIV SWAP1 POP PUSH1 0x1 DUP3 AND DUP1 PUSH2 0x22DE JUMPI PUSH1 0x7F DUP3 AND SWAP2 POP JUMPDEST PUSH1 0x20 DUP3 LT DUP2 SUB PUSH2 0x22F1 JUMPI PUSH2 0x22F0 PUSH2 0x229A JUMP JUMPDEST JUMPDEST POP SWAP2 SWAP1 POP JUMP JUMPDEST PUSH0 PUSH1 0x60 DUP3 ADD SWAP1 POP PUSH2 0x230A PUSH0 DUP4 ADD DUP7 PUSH2 0x1E1D JUMP JUMPDEST PUSH2 0x2317 PUSH1 0x20 DUP4 ADD DUP6 PUSH2 0x1F28 JUMP JUMPDEST PUSH2 0x2324 PUSH1 0x40 DUP4 ADD DUP5 PUSH2 0x1E1D JUMP JUMPDEST SWAP5 SWAP4 POP POP POP POP JUMP JUMPDEST PUSH0 DUP2 SWAP1 POP SWAP3 SWAP2 POP POP JUMP JUMPDEST PUSH0 PUSH2 0x2340 DUP3 PUSH2 0x1CFF JUMP JUMPDEST PUSH2 0x234A DUP2 DUP6 PUSH2 0x232C JUMP JUMPDEST SWAP4 POP PUSH2 0x235A DUP2 DUP6 PUSH1 0x20 DUP7 ADD PUSH2 0x1D19 JUMP JUMPDEST DUP1 DUP5 ADD SWAP2 POP POP SWAP3 SWAP2 POP POP JUMP JUMPDEST PUSH0 PUSH2 0x2371 DUP3 DUP6 PUSH2 0x2336 JUMP JUMPDEST SWAP2 POP PUSH2 0x237D DUP3 DUP5 PUSH2 0x2336 JUMP JUMPDEST SWAP2 POP DUP2 SWAP1 POP SWAP4 SWAP3 POP POP POP JUMP JUMPDEST PUSH32 0x7B226E616D65223A2022736B696C6C732E63762F646F6E746C65747061726565 PUSH0 DUP3 ADD MSTORE PUSH32 0x6E64657369676E616E797468696E67222C200000000000000000000000000000 PUSH1 0x20 DUP3 ADD MSTORE POP JUMP JUMPDEST PUSH0 PUSH2 0x23E3 PUSH1 0x32 DUP4 PUSH2 0x232C JUMP JUMPDEST SWAP2 POP PUSH2 0x23EE DUP3 PUSH2 0x2389 JUMP JUMPDEST PUSH1 0x32 DUP3 ADD SWAP1 POP SWAP2 SWAP1 POP JUMP JUMPDEST PUSH32 0x226465736372697074696F6E223A20224E465420776974682064796E616D6963 PUSH0 DUP3 ADD MSTORE PUSH32 0x20696D61676520636F6E74656E742E222C200000000000000000000000000000 PUSH1 0x20 DUP3 ADD MSTORE POP JUMP JUMPDEST PUSH0 PUSH2 0x2453 PUSH1 0x32 DUP4 PUSH2 0x232C JUMP JUMPDEST SWAP2 POP PUSH2 0x245E DUP3 PUSH2 0x23F9 JUMP JUMPDEST PUSH1 0x32 DUP3 ADD SWAP1 POP SWAP2 SWAP1 POP JUMP JUMPDEST PUSH32 0x22696D616765223A202200000000000000000000000000000000000000000000 PUSH0 DUP3 ADD MSTORE POP JUMP JUMPDEST PUSH0 PUSH2 0x249D PUSH1 0xA DUP4 PUSH2 0x232C JUMP JUMPDEST SWAP2 POP PUSH2 0x24A8 DUP3 PUSH2 0x2469 JUMP JUMPDEST PUSH1 0xA DUP3 ADD SWAP1 POP SWAP2 SWAP1 POP JUMP JUMPDEST PUSH32 0x227D000000000000000000000000000000000000000000000000000000000000 PUSH0 DUP3 ADD MSTORE POP JUMP JUMPDEST PUSH0 PUSH2 0x24E7 PUSH1 0x2 DUP4 PUSH2 0x232C JUMP JUMPDEST SWAP2 POP PUSH2 0x24F2 DUP3 PUSH2 0x24B3 JUMP JUMPDEST PUSH1 0x2 DUP3 ADD SWAP1 POP SWAP2 SWAP1 POP JUMP JUMPDEST PUSH0 PUSH2 0x2507 DUP3 PUSH2 0x23D7 JUMP JUMPDEST SWAP2 POP PUSH2 0x2512 DUP3 PUSH2 0x2447 JUMP JUMPDEST SWAP2 POP PUSH2 0x251D DUP3 PUSH2 0x2491 JUMP JUMPDEST SWAP2 POP PUSH2 0x2529 DUP3 DUP5 PUSH2 0x2336 JUMP JUMPDEST SWAP2 POP PUSH2 0x2534 DUP3 PUSH2 0x24DB JUMP JUMPDEST SWAP2 POP DUP2 SWAP1 POP SWAP3 SWAP2 POP POP JUMP JUMPDEST PUSH32 0x646174613A6170706C69636174696F6E2F6A736F6E3B6261736536342C000000 PUSH0 DUP3 ADD MSTORE POP JUMP JUMPDEST PUSH0 PUSH2 0x2573 PUSH1 0x1D DUP4 PUSH2 0x232C JUMP JUMPDEST SWAP2 POP PUSH2 0x257E DUP3 PUSH2 0x253F JUMP JUMPDEST PUSH1 0x1D DUP3 ADD SWAP1 POP SWAP2 SWAP1 POP JUMP JUMPDEST PUSH0 PUSH2 0x2593 DUP3 PUSH2 0x2567 JUMP JUMPDEST SWAP2 POP PUSH2 0x259F DUP3 DUP5 PUSH2 0x2336 JUMP JUMPDEST SWAP2 POP DUP2 SWAP1 POP SWAP3 SWAP2 POP POP JUMP JUMPDEST PUSH32 0x4E487B7100000000000000000000000000000000000000000000000000000000 PUSH0 MSTORE PUSH1 0x11 PUSH1 0x4 MSTORE PUSH1 0x24 PUSH0 REVERT JUMPDEST PUSH0 PUSH2 0x25E1 DUP3 PUSH2 0x1D8F JUMP JUMPDEST SWAP2 POP PUSH32 0xFFFFFFFFFFFFFFFFFFFFFFFFFFFFFFFFFFFFFFFFFFFFFFFFFFFFFFFFFFFFFFFF DUP3 SUB PUSH2 0x2613 JUMPI PUSH2 0x2612 PUSH2 0x25AA JUMP JUMPDEST JUMPDEST PUSH1 0x1 DUP3 ADD SWAP1 POP SWAP2 SWAP1 POP JUMP JUMPDEST PUSH0 DUP2 MLOAD SWAP1 POP SWAP2 SWAP1 POP JUMP JUMPDEST PUSH0 DUP3 DUP3 MSTORE PUSH1 0x20 DUP3 ADD SWAP1 POP SWAP3 SWAP2 POP POP JUMP JUMPDEST PUSH0 PUSH2 0x2642 DUP3 PUSH2 0x261E JUMP JUMPDEST PUSH2 0x264C DUP2 DUP6 PUSH2 0x2628 JUMP JUMPDEST SWAP4 POP PUSH2 0x265C DUP2 DUP6 PUSH1 0x20 DUP7 ADD PUSH2 0x1D19 JUMP JUMPDEST PUSH2 0x2665 DUP2 PUSH2 0x1D27 JUMP JUMPDEST DUP5 ADD SWAP2 POP POP SWAP3 SWAP2 POP POP JUMP JUMPDEST PUSH0 PUSH1 0x80 DUP3 ADD SWAP1 POP PUSH2 0x2683 PUSH0 DUP4 ADD DUP8 PUSH2 0x1E1D JUMP JUMPDEST PUSH2 0x2690 PUSH1 0x20 DUP4 ADD DUP7 PUSH2 0x1E1D JUMP JUMPDEST PUSH2 0x269D PUSH1 0x40 DUP4 ADD DUP6 PUSH2 0x1F28 JUMP JUMPDEST DUP2 DUP2 SUB PUSH1 0x60 DUP4 ADD MSTORE PUSH2 0x26AF DUP2 DUP5 PUSH2 0x2638 JUMP JUMPDEST SWAP1 POP SWAP6 SWAP5 POP POP POP POP POP JUMP JUMPDEST PUSH0 DUP2 MLOAD SWAP1 POP PUSH2 0x26C8 DUP2 PUSH2 0x1C77 JUMP JUMPDEST SWAP3 SWAP2 POP POP JUMP JUMPDEST PUSH0 PUSH1 0x20 DUP3 DUP5 SUB SLT ISZERO PUSH2 0x26E3 JUMPI PUSH2 0x26E2 PUSH2 0x1C44 JUMP JUMPDEST JUMPDEST PUSH0 PUSH2 0x26F0 DUP5 DUP3 DUP6 ADD PUSH2 0x26BA JUMP JUMPDEST SWAP2 POP POP SWAP3 SWAP2 POP POP JUMP JUMPDEST PUSH0 DUP2 SWAP1 POP DUP2 PUSH0 MSTORE PUSH1 0x20 PUSH0 KECCAK256 SWAP1 POP SWAP2 SWAP1 POP JUMP JUMPDEST PUSH0 PUSH1 0x20 PUSH1 0x1F DUP4 ADD DIV SWAP1 POP SWAP2 SWAP1 POP JUMP JUMPDEST PUSH0 DUP3 DUP3 SHL SWAP1 POP SWAP3 SWAP2 POP POP JUMP JUMPDEST PUSH0 PUSH1 0x8 DUP4 MUL PUSH2 0x2755 PUSH32 0xFFFFFFFFFFFFFFFFFFFFFFFFFFFFFFFFFFFFFFFFFFFFFFFFFFFFFFFFFFFFFFFF DUP3 PUSH2 0x271A JUMP JUMPDEST PUSH2 0x275F DUP7 DUP4 PUSH2 0x271A JUMP JUMPDEST SWAP6 POP DUP1 NOT DUP5 AND SWAP4 POP DUP1 DUP7 AND DUP5 OR SWAP3 POP POP POP SWAP4 SWAP3 POP POP POP JUMP JUMPDEST PUSH0 DUP2 SWAP1 POP SWAP2 SWAP1 POP JUMP JUMPDEST PUSH0 PUSH2 0x279A PUSH2 0x2795 PUSH2 0x2790 DUP5 PUSH2 0x1D8F JUMP JUMPDEST PUSH2 0x2777 JUMP JUMPDEST PUSH2 0x1D8F JUMP JUMPDEST SWAP1 POP SWAP2 SWAP1 POP JUMP JUMPDEST PUSH0 DUP2 SWAP1 POP SWAP2 SWAP1 POP JUMP JUMPDEST PUSH2 0x27B3 DUP4 PUSH2 0x2780 JUMP JUMPDEST PUSH2 0x27C7 PUSH2 0x27BF DUP3 PUSH2 0x27A1 JUMP JUMPDEST DUP5 DUP5 SLOAD PUSH2 0x2726 JUMP JUMPDEST DUP3 SSTORE POP POP POP POP JUMP JUMPDEST PUSH0 SWAP1 JUMP JUMPDEST PUSH2 0x27DB PUSH2 0x27CF JUMP JUMPDEST PUSH2 0x27E6 DUP2 DUP5 DUP5 PUSH2 0x27AA JUMP JUMPDEST POP POP POP JUMP JUMPDEST JUMPDEST DUP2 DUP2 LT ISZERO PUSH2 0x2809 JUMPI PUSH2 0x27FE PUSH0 DUP3 PUSH2 0x27D3 JUMP JUMPDEST PUSH1 0x1 DUP2 ADD SWAP1 POP PUSH2 0x27EC JUMP JUMPDEST POP POP JUMP JUMPDEST PUSH1 0x1F DUP3 GT ISZERO PUSH2 0x284E JUMPI PUSH2 0x281F DUP2 PUSH2 0x26F9 JUMP JUMPDEST PUSH2 0x2828 DUP5 PUSH2 0x270B JUMP JUMPDEST DUP2 ADD PUSH1 0x20 DUP6 LT ISZERO PUSH2 0x2837 JUMPI DUP2 SWAP1 POP JUMPDEST PUSH2 0x284B PUSH2 0x2843 DUP6 PUSH2 0x270B JUMP JUMPDEST DUP4 ADD DUP3 PUSH2 0x27EB JUMP JUMPDEST POP POP JUMPDEST POP POP POP JUMP JUMPDEST PUSH0 DUP3 DUP3 SHR SWAP1 POP SWAP3 SWAP2 POP POP JUMP JUMPDEST PUSH0 PUSH2 0x286E PUSH0 NOT DUP5 PUSH1 0x8 MUL PUSH2 0x2853 JUMP JUMPDEST NOT DUP1 DUP4 AND SWAP2 POP POP SWAP3 SWAP2 POP POP JUMP JUMPDEST PUSH0 PUSH2 0x2886 DUP4 DUP4 PUSH2 0x285F JUMP JUMPDEST SWAP2 POP DUP3 PUSH1 0x2 MUL DUP3 OR SWAP1 POP SWAP3 SWAP2 POP POP JUMP JUMPDEST PUSH2 0x289F DUP3 PUSH2 0x1CFF JUMP JUMPDEST PUSH8 0xFFFFFFFFFFFFFFFF DUP2 GT ISZERO PUSH2 0x28B8 JUMPI PUSH2 0x28B7 PUSH2 0x1FC0 JUMP JUMPDEST JUMPDEST PUSH2 0x28C2 DUP3 SLOAD PUSH2 0x22C7 JUMP JUMPDEST PUSH2 0x28CD DUP3 DUP3 DUP6 PUSH2 0x280D JUMP JUMPDEST PUSH0 PUSH1 0x20 SWAP1 POP PUSH1 0x1F DUP4 GT PUSH1 0x1 DUP2 EQ PUSH2 0x28FE JUMPI PUSH0 DUP5 ISZERO PUSH2 0x28EC JUMPI DUP3 DUP8 ADD MLOAD SWAP1 POP JUMPDEST PUSH2 0x28F6 DUP6 DUP3 PUSH2 0x287B JUMP JUMPDEST DUP7 SSTORE POP PUSH2 0x295D JUMP JUMPDEST PUSH1 0x1F NOT DUP5 AND PUSH2 0x290C DUP7 PUSH2 0x26F9 JUMP JUMPDEST PUSH0 JUMPDEST DUP3 DUP2 LT ISZERO PUSH2 0x2933 JUMPI DUP5 DUP10 ADD MLOAD DUP3 SSTORE PUSH1 0x1 DUP3 ADD SWAP2 POP PUSH1 0x20 DUP6 ADD SWAP5 POP PUSH1 0x20 DUP2 ADD SWAP1 POP PUSH2 0x290E JUMP JUMPDEST DUP7 DUP4 LT ISZERO PUSH2 0x2950 JUMPI DUP5 DUP10 ADD MLOAD PUSH2 0x294C PUSH1 0x1F DUP10 AND DUP3 PUSH2 0x285F JUMP JUMPDEST DUP4 SSTORE POP JUMPDEST PUSH1 0x1 PUSH1 0x2 DUP9 MUL ADD DUP9 SSTORE POP POP POP JUMPDEST POP POP POP POP POP POP JUMP JUMPDEST PUSH0 PUSH1 0x40 DUP3 ADD SWAP1 POP PUSH2 0x2978 PUSH0 DUP4 ADD DUP6 PUSH2 0x1E1D JUMP JUMPDEST PUSH2 0x2985 PUSH1 0x20 DUP4 ADD DUP5 PUSH2 0x1F28 JUMP JUMPDEST SWAP4 SWAP3 POP POP POP JUMP JUMPDEST PUSH32 0x4E487B7100000000000000000000000000000000000000000000000000000000 PUSH0 MSTORE PUSH1 0x12 PUSH1 0x4 MSTORE PUSH1 0x24 PUSH0 REVERT JUMPDEST PUSH0 PUSH2 0x29C3 DUP3 PUSH2 0x1D8F JUMP JUMPDEST SWAP2 POP PUSH2 0x29CE DUP4 PUSH2 0x1D8F JUMP JUMPDEST SWAP3 POP DUP3 DUP3 MUL PUSH2 0x29DC DUP2 PUSH2 0x1D8F JUMP JUMPDEST SWAP2 POP DUP3 DUP3 DIV DUP5 EQ DUP4 ISZERO OR PUSH2 0x29F3 JUMPI PUSH2 0x29F2 PUSH2 0x25AA JUMP JUMPDEST JUMPDEST POP SWAP3 SWAP2 POP POP JUMP JUMPDEST PUSH0 PUSH2 0x2A04 DUP3 PUSH2 0x1D8F JUMP JUMPDEST SWAP2 POP PUSH2 0x2A0F DUP4 PUSH2 0x1D8F JUMP JUMPDEST SWAP3 POP DUP3 DUP3 ADD SWAP1 POP DUP1 DUP3 GT ISZERO PUSH2 0x2A27 JUMPI PUSH2 0x2A26 PUSH2 0x25AA JUMP JUMPDEST JUMPDEST SWAP3 SWAP2 POP POP JUMP JUMPDEST PUSH0 PUSH2 0x2A37 DUP3 PUSH2 0x1D8F JUMP JUMPDEST SWAP2 POP PUSH2 0x2A42 DUP4 PUSH2 0x1D8F JUMP JUMPDEST SWAP3 POP DUP3 PUSH2 0x2A52 JUMPI PUSH2 0x2A51 PUSH2 0x298C JUMP JUMPDEST JUMPDEST DUP3 DUP3 DIV SWAP1 POP SWAP3 SWAP2 POP POP JUMP INVALID COINBASE TIMESTAMP NUMBER PREVRANDAO GASLIMIT CHAINID SELFBALANCE BASEFEE BLOBHASH BLOBBASEFEE 0x4B 0x4C 0x4D 0x4E 0x4F POP MLOAD MSTORE MSTORE8 SLOAD SSTORE JUMP JUMPI PC MSIZE GAS PUSH2 0x6263 PUSH5 0x6566676869 PUSH11 0x6B6C6D6E6F707172737475 PUSH23 0x7778797A303132333435363738392B2FA2646970667358 0x22 SLT KECCAK256 SAR PUSH5 0x9882C79005 0xA8 SWAP10 0xD3 0xAB PUSH0 0x1E PUSH6 0xCCC9F0F36105 0x1E 0xF7 0xE2 0xEB NUMBER 0xC9 DUP6 EXP ADDMOD 0xDD ADDRESS INVALID PUSH5 0x736F6C6343 STOP ADDMOD BYTE STOP CALLER "
		},
		"gasEstimates": {
			"creation": {
				"codeDepositCost": "2192600",
				"executionCost": "infinite",
				"totalCost": "infinite"
			},
			"external": {
				"approve(address,uint256)": "infinite",
				"balanceOf(address)": "infinite",
				"getApproved(uint256)": "infinite",
				"isApprovedForAll(address,address)": "infinite",
				"mintNFT(address,string)": "infinite",
				"name()": "infinite",
				"owner()": "2538",
				"ownerOf(uint256)": "infinite",
				"renounceOwnership()": "infinite",
				"safeTransferFrom(address,address,uint256)": "infinite",
				"safeTransferFrom(address,address,uint256,bytes)": "infinite",
				"setApprovalForAll(address,bool)": "infinite",
				"supportsInterface(bytes4)": "881",
				"symbol()": "infinite",
				"tokenCounter()": "2469",
				"tokenURI(uint256)": "infinite",
				"transferFrom(address,address,uint256)": "infinite",
				"transferOwnership(address)": "infinite"
			}
		},
		"methodIdentifiers": {
			"approve(address,uint256)": "095ea7b3",
			"balanceOf(address)": "70a08231",
			"getApproved(uint256)": "081812fc",
			"isApprovedForAll(address,address)": "e985e9c5",
			"mintNFT(address,string)": "eacabe14",
			"name()": "06fdde03",
			"owner()": "8da5cb5b",
			"ownerOf(uint256)": "6352211e",
			"renounceOwnership()": "715018a6",
			"safeTransferFrom(address,address,uint256)": "42842e0e",
			"safeTransferFrom(address,address,uint256,bytes)": "b88d4fde",
			"setApprovalForAll(address,bool)": "a22cb465",
			"supportsInterface(bytes4)": "01ffc9a7",
			"symbol()": "95d89b41",
			"tokenCounter()": "d082e381",
			"tokenURI(uint256)": "c87b56dd",
			"transferFrom(address,address,uint256)": "23b872dd",
			"transferOwnership(address)": "f2fde38b"
		}
	},
	"abi": [
		{
			"inputs": [],
			"stateMutability": "nonpayable",
			"type": "constructor"
		},
		{
			"inputs": [
				{
					"internalType": "address",
					"name": "sender",
					"type": "address"
				},
				{
					"internalType": "uint256",
					"name": "tokenId",
					"type": "uint256"
				},
				{
					"internalType": "address",
					"name": "owner",
					"type": "address"
				}
			],
			"name": "ERC721IncorrectOwner",
			"type": "error"
		},
		{
			"inputs": [
				{
					"internalType": "address",
					"name": "operator",
					"type": "address"
				},
				{
					"internalType": "uint256",
					"name": "tokenId",
					"type": "uint256"
				}
			],
			"name": "ERC721InsufficientApproval",
			"type": "error"
		},
		{
			"inputs": [
				{
					"internalType": "address",
					"name": "approver",
					"type": "address"
				}
			],
			"name": "ERC721InvalidApprover",
			"type": "error"
		},
		{
			"inputs": [
				{
					"internalType": "address",
					"name": "operator",
					"type": "address"
				}
			],
			"name": "ERC721InvalidOperator",
			"type": "error"
		},
		{
			"inputs": [
				{
					"internalType": "address",
					"name": "owner",
					"type": "address"
				}
			],
			"name": "ERC721InvalidOwner",
			"type": "error"
		},
		{
			"inputs": [
				{
					"internalType": "address",
					"name": "receiver",
					"type": "address"
				}
			],
			"name": "ERC721InvalidReceiver",
			"type": "error"
		},
		{
			"inputs": [
				{
					"internalType": "address",
					"name": "sender",
					"type": "address"
				}
			],
			"name": "ERC721InvalidSender",
			"type": "error"
		},
		{
			"inputs": [
				{
					"internalType": "uint256",
					"name": "tokenId",
					"type": "uint256"
				}
			],
			"name": "ERC721NonexistentToken",
			"type": "error"
		},
		{
			"inputs": [
				{
					"internalType": "address",
					"name": "owner",
					"type": "address"
				}
			],
			"name": "OwnableInvalidOwner",
			"type": "error"
		},
		{
			"inputs": [
				{
					"internalType": "address",
					"name": "account",
					"type": "address"
				}
			],
			"name": "OwnableUnauthorizedAccount",
			"type": "error"
		},
		{
			"anonymous": false,
			"inputs": [
				{
					"indexed": true,
					"internalType": "address",
					"name": "owner",
					"type": "address"
				},
				{
					"indexed": true,
					"internalType": "address",
					"name": "approved",
					"type": "address"
				},
				{
					"indexed": true,
					"internalType": "uint256",
					"name": "tokenId",
					"type": "uint256"
				}
			],
			"name": "Approval",
			"type": "event"
		},
		{
			"anonymous": false,
			"inputs": [
				{
					"indexed": true,
					"internalType": "address",
					"name": "owner",
					"type": "address"
				},
				{
					"indexed": true,
					"internalType": "address",
					"name": "operator",
					"type": "address"
				},
				{
					"indexed": false,
					"internalType": "bool",
					"name": "approved",
					"type": "bool"
				}
			],
			"name": "ApprovalForAll",
			"type": "event"
		},
		{
			"anonymous": false,
			"inputs": [
				{
					"indexed": false,
					"internalType": "uint256",
					"name": "_fromTokenId",
					"type": "uint256"
				},
				{
					"indexed": false,
					"internalType": "uint256",
					"name": "_toTokenId",
					"type": "uint256"
				}
			],
			"name": "BatchMetadataUpdate",
			"type": "event"
		},
		{
			"anonymous": false,
			"inputs": [
				{
					"indexed": false,
					"internalType": "uint256",
					"name": "_tokenId",
					"type": "uint256"
				}
			],
			"name": "MetadataUpdate",
			"type": "event"
		},
		{
			"anonymous": false,
			"inputs": [
				{
					"indexed": true,
					"internalType": "address",
					"name": "previousOwner",
					"type": "address"
				},
				{
					"indexed": true,
					"internalType": "address",
					"name": "newOwner",
					"type": "address"
				}
			],
			"name": "OwnershipTransferred",
			"type": "event"
		},
		{
			"anonymous": false,
			"inputs": [
				{
					"indexed": true,
					"internalType": "address",
					"name": "from",
					"type": "address"
				},
				{
					"indexed": true,
					"internalType": "address",
					"name": "to",
					"type": "address"
				},
				{
					"indexed": true,
					"internalType": "uint256",
					"name": "tokenId",
					"type": "uint256"
				}
			],
			"name": "Transfer",
			"type": "event"
		},
		{
			"inputs": [
				{
					"internalType": "address",
					"name": "to",
					"type": "address"
				},
				{
					"internalType": "uint256",
					"name": "tokenId",
					"type": "uint256"
				}
			],
			"name": "approve",
			"outputs": [],
			"stateMutability": "nonpayable",
			"type": "function"
		},
		{
			"inputs": [
				{
					"internalType": "address",
					"name": "owner",
					"type": "address"
				}
			],
			"name": "balanceOf",
			"outputs": [
				{
					"internalType": "uint256",
					"name": "",
					"type": "uint256"
				}
			],
			"stateMutability": "view",
			"type": "function"
		},
		{
			"inputs": [
				{
					"internalType": "uint256",
					"name": "tokenId",
					"type": "uint256"
				}
			],
			"name": "getApproved",
			"outputs": [
				{
					"internalType": "address",
					"name": "",
					"type": "address"
				}
			],
			"stateMutability": "view",
			"type": "function"
		},
		{
			"inputs": [
				{
					"internalType": "address",
					"name": "owner",
					"type": "address"
				},
				{
					"internalType": "address",
					"name": "operator",
					"type": "address"
				}
			],
			"name": "isApprovedForAll",
			"outputs": [
				{
					"internalType": "bool",
					"name": "",
					"type": "bool"
				}
			],
			"stateMutability": "view",
			"type": "function"
		},
		{
			"inputs": [
				{
					"internalType": "address",
					"name": "recipient",
					"type": "address"
				},
				{
					"internalType": "string",
					"name": "imageUrl",
					"type": "string"
				}
			],
			"name": "mintNFT",
			"outputs": [
				{
					"internalType": "uint256",
					"name": "",
					"type": "uint256"
				}
			],
			"stateMutability": "nonpayable",
			"type": "function"
		},
		{
			"inputs": [],
			"name": "name",
			"outputs": [
				{
					"internalType": "string",
					"name": "",
					"type": "string"
				}
			],
			"stateMutability": "view",
			"type": "function"
		},
		{
			"inputs": [],
			"name": "owner",
			"outputs": [
				{
					"internalType": "address",
					"name": "",
					"type": "address"
				}
			],
			"stateMutability": "view",
			"type": "function"
		},
		{
			"inputs": [
				{
					"internalType": "uint256",
					"name": "tokenId",
					"type": "uint256"
				}
			],
			"name": "ownerOf",
			"outputs": [
				{
					"internalType": "address",
					"name": "",
					"type": "address"
				}
			],
			"stateMutability": "view",
			"type": "function"
		},
		{
			"inputs": [],
			"name": "renounceOwnership",
			"outputs": [],
			"stateMutability": "nonpayable",
			"type": "function"
		},
		{
			"inputs": [
				{
					"internalType": "address",
					"name": "from",
					"type": "address"
				},
				{
					"internalType": "address",
					"name": "to",
					"type": "address"
				},
				{
					"internalType": "uint256",
					"name": "tokenId",
					"type": "uint256"
				}
			],
			"name": "safeTransferFrom",
			"outputs": [],
			"stateMutability": "nonpayable",
			"type": "function"
		},
		{
			"inputs": [
				{
					"internalType": "address",
					"name": "from",
					"type": "address"
				},
				{
					"internalType": "address",
					"name": "to",
					"type": "address"
				},
				{
					"internalType": "uint256",
					"name": "tokenId",
					"type": "uint256"
				},
				{
					"internalType": "bytes",
					"name": "data",
					"type": "bytes"
				}
			],
			"name": "safeTransferFrom",
			"outputs": [],
			"stateMutability": "nonpayable",
			"type": "function"
		},
		{
			"inputs": [
				{
					"internalType": "address",
					"name": "operator",
					"type": "address"
				},
				{
					"internalType": "bool",
					"name": "approved",
					"type": "bool"
				}
			],
			"name": "setApprovalForAll",
			"outputs": [],
			"stateMutability": "nonpayable",
			"type": "function"
		},
		{
			"inputs": [
				{
					"internalType": "bytes4",
					"name": "interfaceId",
					"type": "bytes4"
				}
			],
			"name": "supportsInterface",
			"outputs": [
				{
					"internalType": "bool",
					"name": "",
					"type": "bool"
				}
			],
			"stateMutability": "view",
			"type": "function"
		},
		{
			"inputs": [],
			"name": "symbol",
			"outputs": [
				{
					"internalType": "string",
					"name": "",
					"type": "string"
				}
			],
			"stateMutability": "view",
			"type": "function"
		},
		{
			"inputs": [],
			"name": "tokenCounter",
			"outputs": [
				{
					"internalType": "uint256",
					"name": "",
					"type": "uint256"
				}
			],
			"stateMutability": "view",
			"type": "function"
		},
		{
			"inputs": [
				{
					"internalType": "uint256",
					"name": "tokenId",
					"type": "uint256"
				}
			],
			"name": "tokenURI",
			"outputs": [
				{
					"internalType": "string",
					"name": "",
					"type": "string"
				}
			],
			"stateMutability": "view",
			"type": "function"
		},
		{
			"inputs": [
				{
					"internalType": "address",
					"name": "from",
					"type": "address"
				},
				{
					"internalType": "address",
					"name": "to",
					"type": "address"
				},
				{
					"internalType": "uint256",
					"name": "tokenId",
					"type": "uint256"
				}
			],
			"name": "transferFrom",
			"outputs": [],
			"stateMutability": "nonpayable",
			"type": "function"
		},
		{
			"inputs": [
				{
					"internalType": "address",
					"name": "newOwner",
					"type": "address"
				}
			],
			"name": "transferOwnership",
			"outputs": [],
			"stateMutability": "nonpayable",
			"type": "function"
		}
	]
}